{
  "abi": [
    {
      "inputs": [],
      "stateMutability": "nonpayable",
      "type": "constructor"
    },
    {
      "inputs": [],
      "name": "BuyTickets",
      "outputs": [],
      "stateMutability": "payable",
      "type": "function"
    },
    {
      "inputs": [],
      "name": "CurrentWinningReward",
      "outputs": [
        {
          "internalType": "uint256",
          "name": "",
          "type": "uint256"
        }
      ],
      "stateMutability": "view",
      "type": "function"
    },
    {
      "inputs": [],
      "name": "DrawWinnerTicket",
      "outputs": [],
      "stateMutability": "nonpayable",
      "type": "function"
    },
    {
      "inputs": [],
      "name": "IsWinner",
      "outputs": [
        {
          "internalType": "bool",
          "name": "",
          "type": "bool"
        }
      ],
      "stateMutability": "view",
      "type": "function"
    },
    {
      "inputs": [],
      "name": "RefundAll",
      "outputs": [],
      "stateMutability": "nonpayable",
      "type": "function"
    },
    {
      "inputs": [],
      "name": "RemainingTickets",
      "outputs": [
        {
          "internalType": "uint256",
          "name": "",
          "type": "uint256"
        }
      ],
      "stateMutability": "view",
      "type": "function"
    },
    {
      "inputs": [],
      "name": "WithdrawCommission",
      "outputs": [],
      "stateMutability": "nonpayable",
      "type": "function"
    },
    {
      "inputs": [],
      "name": "WithdrawWinnings",
      "outputs": [],
      "stateMutability": "nonpayable",
      "type": "function"
    },
    {
      "inputs": [],
      "name": "checkWinningsAmount",
      "outputs": [
        {
          "internalType": "uint256",
          "name": "",
          "type": "uint256"
        }
      ],
      "stateMutability": "view",
      "type": "function"
    },
    {
      "inputs": [],
      "name": "duration",
      "outputs": [
        {
          "internalType": "uint256",
          "name": "",
          "type": "uint256"
        }
      ],
      "stateMutability": "view",
      "type": "function"
    },
    {
      "inputs": [],
      "name": "expiration",
      "outputs": [
        {
          "internalType": "uint256",
          "name": "",
          "type": "uint256"
        }
      ],
      "stateMutability": "view",
      "type": "function"
    },
    {
      "inputs": [],
      "name": "getTickets",
      "outputs": [
        {
          "internalType": "address[]",
          "name": "",
          "type": "address[]"
        }
      ],
      "stateMutability": "view",
      "type": "function"
    },
    {
      "inputs": [
        {
          "internalType": "address",
          "name": "addr",
          "type": "address"
        }
      ],
      "name": "getWinningsForAddress",
      "outputs": [
        {
          "internalType": "uint256",
          "name": "",
          "type": "uint256"
        }
      ],
      "stateMutability": "view",
      "type": "function"
    },
    {
      "inputs": [],
      "name": "lastWinner",
      "outputs": [
        {
          "internalType": "address",
          "name": "",
          "type": "address"
        }
      ],
      "stateMutability": "view",
      "type": "function"
    },
    {
      "inputs": [],
      "name": "lastWinnerAmount",
      "outputs": [
        {
          "internalType": "uint256",
          "name": "",
          "type": "uint256"
        }
      ],
      "stateMutability": "view",
      "type": "function"
    },
    {
      "inputs": [],
      "name": "lotteryOperator",
      "outputs": [
        {
          "internalType": "address",
          "name": "",
          "type": "address"
        }
      ],
      "stateMutability": "view",
      "type": "function"
    },
    {
      "inputs": [],
      "name": "maxTickets",
      "outputs": [
        {
          "internalType": "uint256",
          "name": "",
          "type": "uint256"
        }
      ],
      "stateMutability": "view",
      "type": "function"
    },
    {
      "inputs": [],
      "name": "operatorTotalCommission",
      "outputs": [
        {
          "internalType": "uint256",
          "name": "",
          "type": "uint256"
        }
      ],
      "stateMutability": "view",
      "type": "function"
    },
    {
      "inputs": [],
      "name": "restartDraw",
      "outputs": [],
      "stateMutability": "nonpayable",
      "type": "function"
    },
    {
      "inputs": [],
      "name": "ticketCommission",
      "outputs": [
        {
          "internalType": "uint256",
          "name": "",
          "type": "uint256"
        }
      ],
      "stateMutability": "view",
      "type": "function"
    },
    {
      "inputs": [],
      "name": "ticketPrice",
      "outputs": [
        {
          "internalType": "uint256",
          "name": "",
          "type": "uint256"
        }
      ],
      "stateMutability": "view",
      "type": "function"
    },
    {
      "inputs": [
        {
          "internalType": "uint256",
          "name": "",
          "type": "uint256"
        }
      ],
      "name": "tickets",
      "outputs": [
        {
          "internalType": "address",
          "name": "",
          "type": "address"
        }
      ],
      "stateMutability": "view",
      "type": "function"
    },
    {
      "inputs": [
        {
          "internalType": "address",
          "name": "",
          "type": "address"
        }
      ],
      "name": "winnings",
      "outputs": [
        {
          "internalType": "uint256",
          "name": "",
          "type": "uint256"
        }
      ],
      "stateMutability": "view",
      "type": "function"
    }
  ],
  "devdoc": {
    "kind": "dev",
    "methods": {},
    "version": 1
  },
  "evm": {
    "assembly": "    /* \"Lottery.sol\":670:4838  contract Lottery {... */\n  mstore(0x40, 0x80)\n    /* \"Lottery.sol\":1182:1183  0 */\n  0x00\n    /* \"Lottery.sol\":1141:1183  uint256 public operatorTotalCommission = 0 */\n  0x02\n  sstore\n    /* \"Lottery.sol\":1605:1713  constructor() {... */\n  callvalue\n  dup1\n  iszero\n  tag_1\n  jumpi\n  0x00\n  dup1\n  revert\ntag_1:\n  pop\n    /* \"Lottery.sol\":1629:1644  lotteryOperator */\n  0x01\n    /* \"Lottery.sol\":1629:1657  lotteryOperator = msg.sender */\n  dup1\n  sload\n  not(sub(shl(0xa0, 0x01), 0x01))\n  and\n    /* \"Lottery.sol\":1647:1657  msg.sender */\n  caller\n    /* \"Lottery.sol\":1629:1657  lotteryOperator = msg.sender */\n  or\n  swap1\n  sstore\n    /* \"Lottery.sol\":1680:1706  block.timestamp + duration */\n  tag_4\n    /* \"Lottery.sol\":968:981  10080 minutes */\n  0x093a80\n    /* \"Lottery.sol\":1680:1695  block.timestamp */\n  timestamp\n    /* \"Lottery.sol\":1680:1706  block.timestamp + duration */\n  tag_5\n  jump\t// in\ntag_4:\n    /* \"Lottery.sol\":1667:1677  expiration */\n  0x00\n    /* \"Lottery.sol\":1667:1706  expiration = block.timestamp + duration */\n  sstore\n    /* \"Lottery.sol\":670:4838  contract Lottery {... */\n  jump(tag_7)\n    /* \"#utility.yul\":14:239   */\ntag_5:\n    /* \"#utility.yul\":54:57   */\n  0x00\n    /* \"#utility.yul\":85:86   */\n  dup3\n    /* \"#utility.yul\":81:87   */\n  not\n    /* \"#utility.yul\":78:79   */\n  dup3\n    /* \"#utility.yul\":75:88   */\n  gt\n    /* \"#utility.yul\":72:208   */\n  iszero\n  tag_9\n  jumpi\n    /* \"#utility.yul\":130:140   */\n  0x4e487b71\n    /* \"#utility.yul\":125:128   */\n  0xe0\n    /* \"#utility.yul\":121:141   */\n  shl\n    /* \"#utility.yul\":118:119   */\n  0x00\n    /* \"#utility.yul\":111:142   */\n  mstore\n    /* \"#utility.yul\":165:169   */\n  0x11\n    /* \"#utility.yul\":162:163   */\n  0x04\n    /* \"#utility.yul\":155:170   */\n  mstore\n    /* \"#utility.yul\":193:197   */\n  0x24\n    /* \"#utility.yul\":190:191   */\n  0x00\n    /* \"#utility.yul\":183:198   */\n  revert\n    /* \"#utility.yul\":72:208   */\ntag_9:\n  pop\n    /* \"#utility.yul\":224:233   */\n  add\n  swap1\n    /* \"#utility.yul\":14:239   */\n  jump\t// out\ntag_7:\n    /* \"Lottery.sol\":670:4838  contract Lottery {... */\n  dataSize(sub_0)\n  dup1\n  dataOffset(sub_0)\n  0x00\n  codecopy\n  0x00\n  return\nstop\n\nsub_0: assembly {\n        /* \"Lottery.sol\":670:4838  contract Lottery {... */\n      mstore(0x40, 0x80)\n      jumpi(tag_1, lt(calldatasize, 0x04))\n      shr(0xe0, calldataload(0x00))\n      dup1\n      0x71827b7b\n      gt\n      tag_25\n      jumpi\n      dup1\n      0xba946d79\n      gt\n      tag_26\n      jumpi\n      dup1\n      0xea3a1499\n      gt\n      tag_27\n      jumpi\n      dup1\n      0xea3a1499\n      eq\n      tag_22\n      jumpi\n      dup1\n      0xf2613269\n      eq\n      tag_23\n      jumpi\n      dup1\n      0xfe188184\n      eq\n      tag_24\n      jumpi\n      0x00\n      dup1\n      revert\n    tag_27:\n      dup1\n      0xba946d79\n      eq\n      tag_19\n      jumpi\n      dup1\n      0xc6944fa0\n      eq\n      tag_20\n      jumpi\n      dup1\n      0xdd64e534\n      eq\n      tag_21\n      jumpi\n      0x00\n      dup1\n      revert\n    tag_26:\n      dup1\n      0x96c85ef3\n      gt\n      tag_28\n      jumpi\n      dup1\n      0x96c85ef3\n      eq\n      tag_16\n      jumpi\n      dup1\n      0x9b894703\n      eq\n      tag_17\n      jumpi\n      dup1\n      0xa88f4672\n      eq\n      tag_18\n      jumpi\n      0x00\n      dup1\n      revert\n    tag_28:\n      dup1\n      0x71827b7b\n      eq\n      tag_13\n      jumpi\n      dup1\n      0x91d8b14e\n      eq\n      tag_14\n      jumpi\n      dup1\n      0x93a563b5\n      eq\n      tag_15\n      jumpi\n      0x00\n      dup1\n      revert\n    tag_25:\n      dup1\n      0x4665096d\n      gt\n      tag_29\n      jumpi\n      dup1\n      0x50b44712\n      gt\n      tag_30\n      jumpi\n      dup1\n      0x50b44712\n      eq\n      tag_10\n      jumpi\n      dup1\n      0x5a58acdd\n      eq\n      tag_11\n      jumpi\n      dup1\n      0x6032a4f9\n      eq\n      tag_12\n      jumpi\n      0x00\n      dup1\n      revert\n    tag_30:\n      dup1\n      0x4665096d\n      eq\n      tag_7\n      jumpi\n      dup1\n      0x4788af7c\n      eq\n      tag_8\n      jumpi\n      dup1\n      0x4ed02622\n      eq\n      tag_9\n      jumpi\n      0x00\n      dup1\n      revert\n    tag_29:\n      dup1\n      0x0fb5a6b4\n      gt\n      tag_31\n      jumpi\n      dup1\n      0x0fb5a6b4\n      eq\n      tag_4\n      jumpi\n      dup1\n      0x1209b1f6\n      eq\n      tag_5\n      jumpi\n      dup1\n      0x35580df2\n      eq\n      tag_6\n      jumpi\n      0x00\n      dup1\n      revert\n    tag_31:\n      dup1\n      0x06f7f3bf\n      eq\n      tag_2\n      jumpi\n      dup1\n      0x0789c607\n      eq\n      tag_3\n      jumpi\n    tag_1:\n      0x00\n      dup1\n      revert\n        /* \"Lottery.sol\":1220:1251  uint256 public lastWinnerAmount */\n    tag_2:\n      callvalue\n      dup1\n      iszero\n      tag_32\n      jumpi\n      0x00\n      dup1\n      revert\n    tag_32:\n      pop\n      tag_33\n      sload(0x04)\n      dup2\n      jump\n    tag_33:\n      mload(0x40)\n        /* \"#utility.yul\":160:185   */\n      swap1\n      dup2\n      mstore\n        /* \"#utility.yul\":148:150   */\n      0x20\n        /* \"#utility.yul\":133:151   */\n      add\n        /* \"Lottery.sol\":1220:1251  uint256 public lastWinnerAmount */\n    tag_35:\n      mload(0x40)\n      dup1\n      swap2\n      sub\n      swap1\n      return\n        /* \"Lottery.sol\":3449:3657  function checkWinningsAmount() public view returns (uint256) {... */\n    tag_3:\n      callvalue\n      dup1\n      iszero\n      tag_37\n      jumpi\n      0x00\n      dup1\n      revert\n    tag_37:\n      pop\n        /* \"Lottery.sol\":3553:3563  msg.sender */\n      caller\n        /* \"Lottery.sol\":3501:3508  uint256 */\n      0x00\n        /* \"Lottery.sol\":3601:3617  winnings[winner] */\n      swap1\n      dup2\n      mstore\n        /* \"Lottery.sol\":3601:3609  winnings */\n      0x05\n        /* \"Lottery.sol\":3601:3617  winnings[winner] */\n      0x20\n      mstore\n      0x40\n      swap1\n      keccak256\n      sload\n        /* \"Lottery.sol\":3449:3657  function checkWinningsAmount() public view returns (uint256) {... */\n      jump(tag_33)\n        /* \"Lottery.sol\":933:981  uint256 public constant duration = 10080 minutes */\n    tag_4:\n      callvalue\n      dup1\n      iszero\n      tag_41\n      jumpi\n      0x00\n      dup1\n      revert\n    tag_41:\n      pop\n      tag_33\n        /* \"Lottery.sol\":968:981  10080 minutes */\n      0x093a80\n        /* \"Lottery.sol\":933:981  uint256 public constant duration = 10080 minutes */\n      dup2\n      jump\n        /* \"Lottery.sol\":693:738  uint256 public constant ticketPrice = 1 ether */\n    tag_5:\n      callvalue\n      dup1\n      iszero\n      tag_45\n      jumpi\n      0x00\n      dup1\n      revert\n    tag_45:\n      pop\n      tag_33\n        /* \"Lottery.sol\":731:738  1 ether */\n      0x0de0b6b3a7640000\n        /* \"Lottery.sol\":693:738  uint256 public constant ticketPrice = 1 ether */\n      dup2\n      jump\n        /* \"Lottery.sol\":4239:4500  function WithdrawCommission() public isOperator {... */\n    tag_6:\n      callvalue\n      dup1\n      iszero\n      tag_49\n      jumpi\n      0x00\n      dup1\n      revert\n    tag_49:\n      pop\n      tag_50\n      tag_51\n      jump\t// in\n    tag_50:\n      stop\n        /* \"Lottery.sol\":1033:1058  uint256 public expiration */\n    tag_7:\n      callvalue\n      dup1\n      iszero\n      tag_52\n      jumpi\n      0x00\n      dup1\n      revert\n    tag_52:\n      pop\n      tag_33\n      sload(0x00)\n      dup2\n      jump\n        /* \"Lottery.sol\":2513:3235  function DrawWinnerTicket() public isOperator {... */\n    tag_8:\n      callvalue\n      dup1\n      iszero\n      tag_56\n      jumpi\n      0x00\n      dup1\n      revert\n    tag_56:\n      pop\n      tag_50\n      tag_58\n      jump\t// in\n        /* \"Lottery.sol\":1719:1811  function getTickets() public view returns (address[] memory) {... */\n    tag_9:\n      callvalue\n      dup1\n      iszero\n      tag_59\n      jumpi\n      0x00\n      dup1\n      revert\n    tag_59:\n      pop\n      tag_60\n      tag_61\n      jump\t// in\n    tag_60:\n      mload(0x40)\n      tag_35\n      swap2\n      swap1\n      tag_63\n      jump\t// in\n        /* \"Lottery.sol\":1307:1331  address[] public tickets */\n    tag_10:\n      callvalue\n      dup1\n      iszero\n      tag_64\n      jumpi\n      0x00\n      dup1\n      revert\n    tag_64:\n      pop\n      tag_65\n      tag_66\n      calldatasize\n      0x04\n      tag_67\n      jump\t// in\n    tag_66:\n      tag_68\n      jump\t// in\n    tag_65:\n      mload(0x40)\n      sub(shl(0xa0, 0x01), 0x01)\n        /* \"#utility.yul\":1231:1286   */\n      swap1\n      swap2\n      and\n        /* \"#utility.yul\":1213:1287   */\n      dup2\n      mstore\n        /* \"#utility.yul\":1201:1203   */\n      0x20\n        /* \"#utility.yul\":1186:1204   */\n      add\n        /* \"Lottery.sol\":1307:1331  address[] public tickets */\n      tag_35\n        /* \"#utility.yul\":1067:1293   */\n      jump\n        /* \"Lottery.sol\":1064:1094  address public lotteryOperator */\n    tag_11:\n      callvalue\n      dup1\n      iszero\n      tag_71\n      jumpi\n      0x00\n      dup1\n      revert\n    tag_71:\n      pop\n      sload(0x01)\n      tag_65\n      swap1\n      sub(shl(0xa0, 0x01), 0x01)\n      and\n      dup2\n      jump\n        /* \"Lottery.sol\":827:880  uint256 public constant ticketCommission = 0.01 ether */\n    tag_12:\n      callvalue\n      dup1\n      iszero\n      tag_75\n      jumpi\n      0x00\n      dup1\n      revert\n    tag_75:\n      pop\n      tag_33\n        /* \"Lottery.sol\":870:880  0.01 ether */\n      0x2386f26fc10000\n        /* \"Lottery.sol\":827:880  uint256 public constant ticketCommission = 0.01 ether */\n      dup2\n      jump\n        /* \"Lottery.sol\":3663:3894  function WithdrawWinnings() public isWinner {... */\n    tag_13:\n      callvalue\n      dup1\n      iszero\n      tag_79\n      jumpi\n      0x00\n      dup1\n      revert\n    tag_79:\n      pop\n      tag_50\n      tag_81\n      jump\t// in\n        /* \"Lottery.sol\":1936:2507  function BuyTickets() public payable {... */\n    tag_14:\n      tag_50\n      tag_83\n      jump\t// in\n        /* \"Lottery.sol\":4727:4836  function RemainingTickets() public view returns (uint256) {... */\n    tag_15:\n      callvalue\n      dup1\n      iszero\n      tag_84\n      jumpi\n      0x00\n      dup1\n      revert\n    tag_84:\n      pop\n      tag_33\n      tag_86\n      jump\t// in\n        /* \"Lottery.sol\":4506:4601  function IsWinner() public view returns (bool) {... */\n    tag_16:\n      callvalue\n      dup1\n      iszero\n      tag_88\n      jumpi\n      0x00\n      dup1\n      revert\n    tag_88:\n      pop\n        /* \"Lottery.sol\":4579:4589  msg.sender */\n      caller\n        /* \"Lottery.sol\":4547:4551  bool */\n      0x00\n        /* \"Lottery.sol\":4570:4590  winnings[msg.sender] */\n      swap1\n      dup2\n      mstore\n        /* \"Lottery.sol\":4570:4578  winnings */\n      0x05\n        /* \"Lottery.sol\":4570:4590  winnings[msg.sender] */\n      0x20\n      mstore\n      0x40\n      swap1\n      keccak256\n      sload\n        /* \"Lottery.sol\":4570:4594  winnings[msg.sender] > 0 */\n      iszero\n      iszero\n        /* \"Lottery.sol\":4506:4601  function IsWinner() public view returns (bool) {... */\n      mload(0x40)\n        /* \"#utility.yul\":1463:1477   */\n      swap1\n      iszero\n        /* \"#utility.yul\":1456:1478   */\n      iszero\n        /* \"#utility.yul\":1438:1479   */\n      dup2\n      mstore\n        /* \"#utility.yul\":1426:1428   */\n      0x20\n        /* \"#utility.yul\":1411:1429   */\n      add\n        /* \"Lottery.sol\":4506:4601  function IsWinner() public view returns (bool) {... */\n      tag_35\n        /* \"#utility.yul\":1298:1485   */\n      jump\n        /* \"Lottery.sol\":744:784  uint256 public constant maxTickets = 100 */\n    tag_17:\n      callvalue\n      dup1\n      iszero\n      tag_93\n      jumpi\n      0x00\n      dup1\n      revert\n    tag_93:\n      pop\n      tag_33\n        /* \"Lottery.sol\":781:784  100 */\n      0x64\n        /* \"Lottery.sol\":744:784  uint256 public constant maxTickets = 100 */\n      dup2\n      jump\n        /* \"Lottery.sol\":3900:4233  function RefundAll() public {... */\n    tag_18:\n      callvalue\n      dup1\n      iszero\n      tag_97\n      jumpi\n      0x00\n      dup1\n      revert\n    tag_97:\n      pop\n      tag_50\n      tag_99\n      jump\t// in\n        /* \"Lottery.sol\":1141:1183  uint256 public operatorTotalCommission = 0 */\n    tag_19:\n      callvalue\n      dup1\n      iszero\n      tag_100\n      jumpi\n      0x00\n      dup1\n      revert\n    tag_100:\n      pop\n      tag_33\n      sload(0x02)\n      dup2\n      jump\n        /* \"Lottery.sol\":4607:4721  function CurrentWinningReward() public view returns (uint256) {... */\n    tag_20:\n      callvalue\n      dup1\n      iszero\n      tag_104\n      jumpi\n      0x00\n      dup1\n      revert\n    tag_104:\n      pop\n      tag_33\n      tag_106\n      jump\t// in\n        /* \"Lottery.sol\":1817:1930  function getWinningsForAddress(address addr) public view returns (uint256) {... */\n    tag_21:\n      callvalue\n      dup1\n      iszero\n      tag_108\n      jumpi\n      0x00\n      dup1\n      revert\n    tag_108:\n      pop\n      tag_33\n      tag_110\n      calldatasize\n      0x04\n      tag_111\n      jump\t// in\n    tag_110:\n      sub(shl(0xa0, 0x01), 0x01)\n        /* \"Lottery.sol\":1909:1923  winnings[addr] */\n      and\n        /* \"Lottery.sol\":1883:1890  uint256 */\n      0x00\n        /* \"Lottery.sol\":1909:1923  winnings[addr] */\n      swap1\n      dup2\n      mstore\n        /* \"Lottery.sol\":1909:1917  winnings */\n      0x05\n        /* \"Lottery.sol\":1909:1923  winnings[addr] */\n      0x20\n      mstore\n      0x40\n      swap1\n      keccak256\n      sload\n      swap1\n        /* \"Lottery.sol\":1817:1930  function getWinningsForAddress(address addr) public view returns (uint256) {... */\n      jump\n        /* \"Lottery.sol\":1258:1301  mapping(address => uint256) public winnings */\n    tag_22:\n      callvalue\n      dup1\n      iszero\n      tag_114\n      jumpi\n      0x00\n      dup1\n      revert\n    tag_114:\n      pop\n      tag_33\n      tag_116\n      calldatasize\n      0x04\n      tag_111\n      jump\t// in\n    tag_116:\n      mstore(0x20, 0x05)\n      0x00\n      swap1\n      dup2\n      mstore\n      0x40\n      swap1\n      keccak256\n      sload\n      dup2\n      jump\n        /* \"Lottery.sol\":3241:3443  function restartDraw() public isOperator {... */\n    tag_23:\n      callvalue\n      dup1\n      iszero\n      tag_119\n      jumpi\n      0x00\n      dup1\n      revert\n    tag_119:\n      pop\n      tag_50\n      tag_121\n      jump\t// in\n        /* \"Lottery.sol\":1189:1214  address public lastWinner */\n    tag_24:\n      callvalue\n      dup1\n      iszero\n      tag_122\n      jumpi\n      0x00\n      dup1\n      revert\n    tag_122:\n      pop\n      sload(0x03)\n      tag_65\n      swap1\n      sub(shl(0xa0, 0x01), 0x01)\n      and\n      dup2\n      jump\n        /* \"Lottery.sol\":4239:4500  function WithdrawCommission() public isOperator {... */\n    tag_51:\n        /* \"Lottery.sol\":1406:1421  lotteryOperator */\n      and(sub(shl(0xa0, 0x01), 0x01), sload(0x01))\n        /* \"Lottery.sol\":1392:1402  msg.sender */\n      caller\n        /* \"Lottery.sol\":1392:1421  msg.sender == lotteryOperator */\n      eq\n        /* \"Lottery.sol\":1370:1482  require(... */\n      tag_128\n      jumpi\n      mload(0x40)\n      shl(0xe5, 0x461bcd)\n      dup2\n      mstore\n        /* \"#utility.yul\":2006:2008   */\n      0x20\n        /* \"Lottery.sol\":1370:1482  require(... */\n      0x04\n      dup3\n      add\n        /* \"#utility.yul\":1988:2009   */\n      mstore\n        /* \"#utility.yul\":2045:2047   */\n      0x22\n        /* \"#utility.yul\":2025:2043   */\n      0x24\n      dup3\n      add\n        /* \"#utility.yul\":2018:2048   */\n      mstore\n        /* \"#utility.yul\":2084:2118   */\n      0x43616c6c6572206973206e6f7420746865206c6f7474657279206f7065726174\n        /* \"#utility.yul\":2064:2082   */\n      0x44\n      dup3\n      add\n        /* \"#utility.yul\":2057:2119   */\n      mstore\n      shl(0xf1, 0x37b9)\n        /* \"#utility.yul\":2135:2153   */\n      0x64\n      dup3\n      add\n        /* \"#utility.yul\":2128:2160   */\n      mstore\n        /* \"#utility.yul\":2177:2196   */\n      0x84\n      add\n        /* \"Lottery.sol\":1370:1482  require(... */\n    tag_129:\n      mload(0x40)\n      dup1\n      swap2\n      sub\n      swap1\n      revert\n    tag_128:\n        /* \"Lottery.sol\":4384:4407  operatorTotalCommission */\n      0x02\n      dup1\n      sload\n        /* \"Lottery.sol\":4297:4321  address payable operator */\n      0x00\n        /* \"Lottery.sol\":4417:4444  operatorTotalCommission = 0 */\n      swap2\n      dup3\n      swap1\n      sstore\n        /* \"Lottery.sol\":4455:4493  operator.transfer(commission2Transfer) */\n      mload(0x40)\n        /* \"Lottery.sol\":4332:4342  msg.sender */\n      caller\n      swap3\n      dup4\n      swap2\n        /* \"Lottery.sol\":4455:4493  operator.transfer(commission2Transfer) */\n      dup4\n      iszero\n      0x08fc\n      mul\n      swap2\n        /* \"Lottery.sol\":4384:4407  operatorTotalCommission */\n      dup5\n      swap2\n        /* \"Lottery.sol\":4455:4493  operator.transfer(commission2Transfer) */\n      swap1\n      dup2\n        /* \"Lottery.sol\":4297:4321  address payable operator */\n      dup2\n        /* \"Lottery.sol\":4455:4493  operator.transfer(commission2Transfer) */\n      dup2\n        /* \"Lottery.sol\":4384:4407  operatorTotalCommission */\n      dup6\n        /* \"Lottery.sol\":4332:4342  msg.sender */\n      dup9\n        /* \"Lottery.sol\":4455:4493  operator.transfer(commission2Transfer) */\n      dup9\n      call\n      swap4\n      pop\n      pop\n      pop\n      pop\n      iszero\n      dup1\n      iszero\n      tag_133\n      jumpi\n      returndatasize\n      0x00\n      dup1\n      returndatacopy\n      revert(0x00, returndatasize)\n    tag_133:\n      pop\n        /* \"Lottery.sol\":4287:4500  {... */\n      pop\n      pop\n        /* \"Lottery.sol\":4239:4500  function WithdrawCommission() public isOperator {... */\n      jump\t// out\n        /* \"Lottery.sol\":2513:3235  function DrawWinnerTicket() public isOperator {... */\n    tag_58:\n        /* \"Lottery.sol\":1406:1421  lotteryOperator */\n      and(sub(shl(0xa0, 0x01), 0x01), sload(0x01))\n        /* \"Lottery.sol\":1392:1402  msg.sender */\n      caller\n        /* \"Lottery.sol\":1392:1421  msg.sender == lotteryOperator */\n      eq\n        /* \"Lottery.sol\":1370:1482  require(... */\n      tag_135\n      jumpi\n      mload(0x40)\n      shl(0xe5, 0x461bcd)\n      dup2\n      mstore\n        /* \"#utility.yul\":2006:2008   */\n      0x20\n        /* \"Lottery.sol\":1370:1482  require(... */\n      0x04\n      dup3\n      add\n        /* \"#utility.yul\":1988:2009   */\n      mstore\n        /* \"#utility.yul\":2045:2047   */\n      0x22\n        /* \"#utility.yul\":2025:2043   */\n      0x24\n      dup3\n      add\n        /* \"#utility.yul\":2018:2048   */\n      mstore\n        /* \"#utility.yul\":2084:2118   */\n      0x43616c6c6572206973206e6f7420746865206c6f7474657279206f7065726174\n        /* \"#utility.yul\":2064:2082   */\n      0x44\n      dup3\n      add\n        /* \"#utility.yul\":2057:2119   */\n      mstore\n      shl(0xf1, 0x37b9)\n        /* \"#utility.yul\":2135:2153   */\n      0x64\n      dup3\n      add\n        /* \"#utility.yul\":2128:2160   */\n      mstore\n        /* \"#utility.yul\":2177:2196   */\n      0x84\n      add\n        /* \"Lottery.sol\":1370:1482  require(... */\n      tag_129\n        /* \"#utility.yul\":1804:2202   */\n      jump\n        /* \"Lottery.sol\":1370:1482  require(... */\n    tag_135:\n        /* \"Lottery.sol\":2577:2584  tickets */\n      0x06\n        /* \"Lottery.sol\":2577:2591  tickets.length */\n      sload\n        /* \"Lottery.sol\":2569:2625  require(tickets.length > 0, \"No tickets were purchased\") */\n      tag_138\n      jumpi\n      mload(0x40)\n      shl(0xe5, 0x461bcd)\n      dup2\n      mstore\n        /* \"#utility.yul\":2409:2411   */\n      0x20\n        /* \"Lottery.sol\":2569:2625  require(tickets.length > 0, \"No tickets were purchased\") */\n      0x04\n      dup3\n      add\n        /* \"#utility.yul\":2391:2412   */\n      mstore\n        /* \"#utility.yul\":2448:2450   */\n      0x19\n        /* \"#utility.yul\":2428:2446   */\n      0x24\n      dup3\n      add\n        /* \"#utility.yul\":2421:2451   */\n      mstore\n        /* \"#utility.yul\":2487:2514   */\n      0x4e6f207469636b65747320776572652070757263686173656400000000000000\n        /* \"#utility.yul\":2467:2485   */\n      0x44\n      dup3\n      add\n        /* \"#utility.yul\":2460:2515   */\n      mstore\n        /* \"#utility.yul\":2532:2550   */\n      0x64\n      add\n        /* \"Lottery.sol\":2569:2625  require(tickets.length > 0, \"No tickets were purchased\") */\n      tag_129\n        /* \"#utility.yul\":2207:2556   */\n      jump\n        /* \"Lottery.sol\":2569:2625  require(tickets.length > 0, \"No tickets were purchased\") */\n    tag_138:\n        /* \"Lottery.sol\":2681:2688  tickets */\n      0x06\n        /* \"Lottery.sol\":2681:2695  tickets.length */\n      sload\n        /* \"Lottery.sol\":2636:2653  bytes32 blockHash */\n      0x00\n      swap1\n        /* \"Lottery.sol\":2666:2695  block.number - tickets.length */\n      tag_141\n      swap1\n        /* \"Lottery.sol\":2666:2678  block.number */\n      number\n        /* \"Lottery.sol\":2666:2695  block.number - tickets.length */\n      tag_142\n      jump\t// in\n    tag_141:\n        /* \"Lottery.sol\":2760:2804  abi.encodePacked(block.timestamp, blockHash) */\n      0x40\n      dup1\n      mload\n        /* \"Lottery.sol\":2777:2792  block.timestamp */\n      timestamp\n        /* \"Lottery.sol\":2760:2804  abi.encodePacked(block.timestamp, blockHash) */\n      0x20\n      dup3\n      add\n        /* \"#utility.yul\":2980:2999   */\n      mstore\n        /* \"Lottery.sol\":2656:2696  blockhash(block.number - tickets.length) */\n      swap2\n      blockhash\n        /* \"#utility.yul\":3015:3027   */\n      swap1\n      dup3\n      add\n        /* \"#utility.yul\":3008:3036   */\n      dup2\n      swap1\n      mstore\n        /* \"Lottery.sol\":2656:2696  blockhash(block.number - tickets.length) */\n      swap2\n      pop\n        /* \"Lottery.sol\":2706:2726  uint256 randomNumber */\n      0x00\n      swap1\n        /* \"#utility.yul\":3052:3064   */\n      0x60\n      add\n        /* \"Lottery.sol\":2760:2804  abi.encodePacked(block.timestamp, blockHash) */\n      0x40\n      dup1\n      mload\n      not(0x1f)\n      dup2\n      dup5\n      sub\n      add\n      dup2\n      mstore\n      swap2\n      swap1\n      mstore\n        /* \"Lottery.sol\":2750:2805  keccak256(abi.encodePacked(block.timestamp, blockHash)) */\n      dup1\n      mload\n        /* \"Lottery.sol\":2760:2804  abi.encodePacked(block.timestamp, blockHash) */\n      0x20\n        /* \"Lottery.sol\":2750:2805  keccak256(abi.encodePacked(block.timestamp, blockHash)) */\n      swap1\n      swap2\n      add\n      keccak256\n        /* \"Lottery.sol\":2864:2871  tickets */\n      0x06\n        /* \"Lottery.sol\":2864:2878  tickets.length */\n      sload\n        /* \"Lottery.sol\":2750:2805  keccak256(abi.encodePacked(block.timestamp, blockHash)) */\n      swap1\n      swap2\n      pop\n        /* \"Lottery.sol\":2729:2815  uint256(... */\n      0x00\n      swap1\n        /* \"Lottery.sol\":2849:2878  randomNumber % tickets.length */\n      tag_145\n      swap1\n        /* \"Lottery.sol\":2750:2805  keccak256(abi.encodePacked(block.timestamp, blockHash)) */\n      dup4\n        /* \"Lottery.sol\":2849:2878  randomNumber % tickets.length */\n      tag_146\n      jump\t// in\n    tag_145:\n        /* \"Lottery.sol\":2825:2878  uint256 winningTicket = randomNumber % tickets.length */\n      swap1\n      pop\n        /* \"Lottery.sol\":2889:2903  address winner */\n      0x00\n        /* \"Lottery.sol\":2906:2913  tickets */\n      0x06\n        /* \"Lottery.sol\":2914:2927  winningTicket */\n      dup3\n        /* \"Lottery.sol\":2906:2928  tickets[winningTicket] */\n      dup2\n      sload\n      dup2\n      lt\n      tag_148\n      jumpi\n      tag_148\n      tag_149\n      jump\t// in\n    tag_148:\n      0x00\n      swap2\n      dup3\n      mstore\n      0x20\n      swap1\n      swap2\n      keccak256\n      add\n      sload\n        /* \"Lottery.sol\":2938:2948  lastWinner */\n      0x03\n        /* \"Lottery.sol\":2938:2957  lastWinner = winner */\n      dup1\n      sload\n      not(0xffffffffffffffffffffffffffffffffffffffff)\n      and\n      sub(shl(0xa0, 0x01), 0x01)\n        /* \"Lottery.sol\":2906:2928  tickets[winningTicket] */\n      swap1\n      swap3\n      and\n        /* \"Lottery.sol\":2938:2957  lastWinner = winner */\n      swap2\n      dup3\n      or\n      swap1\n      sstore\n        /* \"Lottery.sol\":2906:2928  tickets[winningTicket] */\n      swap1\n      pop\n        /* \"Lottery.sol\":3006:3036  ticketPrice - ticketCommission */\n      tag_151\n        /* \"Lottery.sol\":870:880  0.01 ether */\n      0x2386f26fc10000\n        /* \"Lottery.sol\":731:738  1 ether */\n      0x0de0b6b3a7640000\n        /* \"Lottery.sol\":3006:3036  ticketPrice - ticketCommission */\n      tag_142\n      jump\t// in\n    tag_151:\n        /* \"Lottery.sol\":2988:2995  tickets */\n      0x06\n        /* \"Lottery.sol\":2988:3002  tickets.length */\n      sload\n        /* \"Lottery.sol\":2988:3037  tickets.length * (ticketPrice - ticketCommission) */\n      tag_152\n      swap2\n      swap1\n      tag_153\n      jump\t// in\n    tag_152:\n      sub(shl(0xa0, 0x01), 0x01)\n        /* \"Lottery.sol\":2967:2983  winnings[winner] */\n      dup3\n      and\n      0x00\n      swap1\n      dup2\n      mstore\n        /* \"Lottery.sol\":2967:2975  winnings */\n      0x05\n        /* \"Lottery.sol\":2967:2983  winnings[winner] */\n      0x20\n      mstore\n      0x40\n      dup2\n      keccak256\n        /* \"Lottery.sol\":2967:3038  winnings[winner] += (tickets.length * (ticketPrice - ticketCommission)) */\n      dup1\n      sload\n        /* \"Lottery.sol\":2967:2983  winnings[winner] */\n      swap1\n      swap2\n      swap1\n        /* \"Lottery.sol\":2967:3038  winnings[winner] += (tickets.length * (ticketPrice - ticketCommission)) */\n      tag_154\n      swap1\n      dup5\n      swap1\n      tag_155\n      jump\t// in\n    tag_154:\n      swap1\n      swap2\n      sstore\n      pop\n      pop\n      sub(shl(0xa0, 0x01), 0x01)\n        /* \"Lottery.sol\":3067:3083  winnings[winner] */\n      dup2\n      and\n      0x00\n      swap1\n      dup2\n      mstore\n        /* \"Lottery.sol\":3067:3075  winnings */\n      0x05\n        /* \"Lottery.sol\":3067:3083  winnings[winner] */\n      0x20\n      mstore\n      0x40\n      swap1\n      keccak256\n      sload\n        /* \"Lottery.sol\":3048:3064  lastWinnerAmount */\n      0x04\n        /* \"Lottery.sol\":3048:3083  lastWinnerAmount = winnings[winner] */\n      sstore\n        /* \"Lottery.sol\":3121:3128  tickets */\n      0x06\n        /* \"Lottery.sol\":3121:3135  tickets.length */\n      sload\n        /* \"Lottery.sol\":3121:3154  tickets.length * ticketCommission */\n      tag_156\n      swap1\n        /* \"Lottery.sol\":870:880  0.01 ether */\n      0x2386f26fc10000\n      swap1\n        /* \"Lottery.sol\":3121:3154  tickets.length * ticketCommission */\n      tag_153\n      jump\t// in\n    tag_156:\n        /* \"Lottery.sol\":3093:3116  operatorTotalCommission */\n      0x02\n      0x00\n        /* \"Lottery.sol\":3093:3155  operatorTotalCommission += (tickets.length * ticketCommission) */\n      dup3\n      dup3\n      sload\n      tag_157\n      swap2\n      swap1\n      tag_155\n      jump\t// in\n    tag_157:\n      swap1\n      swap2\n      sstore\n      pop\n        /* \"Lottery.sol\":3165:3179  delete tickets */\n      tag_158\n      swap1\n      pop\n        /* \"Lottery.sol\":3172:3179  tickets */\n      0x06\n      0x00\n        /* \"Lottery.sol\":3165:3179  delete tickets */\n      tag_159\n      jump\t// in\n    tag_158:\n        /* \"Lottery.sol\":3202:3228  block.timestamp + duration */\n      tag_160\n        /* \"Lottery.sol\":968:981  10080 minutes */\n      0x093a80\n        /* \"Lottery.sol\":3202:3217  block.timestamp */\n      timestamp\n        /* \"Lottery.sol\":3202:3228  block.timestamp + duration */\n      tag_155\n      jump\t// in\n    tag_160:\n        /* \"Lottery.sol\":3189:3199  expiration */\n      0x00\n        /* \"Lottery.sol\":3189:3228  expiration = block.timestamp + duration */\n      sstore\n      pop\n      pop\n      pop\n      pop\n        /* \"Lottery.sol\":2513:3235  function DrawWinnerTicket() public isOperator {... */\n      jump\t// out\n        /* \"Lottery.sol\":1719:1811  function getTickets() public view returns (address[] memory) {... */\n    tag_61:\n        /* \"Lottery.sol\":1762:1778  address[] memory */\n      0x60\n        /* \"Lottery.sol\":1797:1804  tickets */\n      0x06\n        /* \"Lottery.sol\":1790:1804  return tickets */\n      dup1\n      sload\n      dup1\n      0x20\n      mul\n      0x20\n      add\n      mload(0x40)\n      swap1\n      dup2\n      add\n      0x40\n      mstore\n      dup1\n      swap3\n      swap2\n      swap1\n      dup2\n      dup2\n      mstore\n      0x20\n      add\n      dup3\n      dup1\n      sload\n      dup1\n      iszero\n      tag_162\n      jumpi\n      0x20\n      mul\n      dup3\n      add\n      swap2\n      swap1\n      0x00\n      mstore\n      keccak256(0x00, 0x20)\n      swap1\n    tag_163:\n      dup2\n      sload\n      sub(shl(0xa0, 0x01), 0x01)\n      and\n      dup2\n      mstore\n      0x01\n      swap1\n      swap2\n      add\n      swap1\n      0x20\n      add\n      dup1\n      dup4\n      gt\n      tag_163\n      jumpi\n    tag_162:\n      pop\n      pop\n      pop\n      pop\n      pop\n      swap1\n      pop\n        /* \"Lottery.sol\":1719:1811  function getTickets() public view returns (address[] memory) {... */\n      swap1\n      jump\t// out\n        /* \"Lottery.sol\":1307:1331  address[] public tickets */\n    tag_68:\n      0x06\n      dup2\n      dup2\n      sload\n      dup2\n      lt\n      tag_164\n      jumpi\n      0x00\n      dup1\n      revert\n    tag_164:\n      0x00\n      swap2\n      dup3\n      mstore\n      0x20\n      swap1\n      swap2\n      keccak256\n      add\n      sload\n      sub(shl(0xa0, 0x01), 0x01)\n      and\n      swap1\n      pop\n      dup2\n      jump\t// out\n        /* \"Lottery.sol\":3663:3894  function WithdrawWinnings() public isWinner {... */\n    tag_81:\n        /* \"Lottery.sol\":4579:4589  msg.sender */\n      caller\n        /* \"Lottery.sol\":4547:4551  bool */\n      0x00\n        /* \"Lottery.sol\":4570:4590  winnings[msg.sender] */\n      swap1\n      dup2\n      mstore\n        /* \"Lottery.sol\":4570:4578  winnings */\n      0x05\n        /* \"Lottery.sol\":4570:4590  winnings[msg.sender] */\n      0x20\n      mstore\n      0x40\n      swap1\n      keccak256\n      sload\n        /* \"Lottery.sol\":1536:1581  require(IsWinner(), \"Caller is not a winner\") */\n      tag_168\n      jumpi\n      mload(0x40)\n      shl(0xe5, 0x461bcd)\n      dup2\n      mstore\n        /* \"#utility.yul\":3964:3966   */\n      0x20\n        /* \"Lottery.sol\":1536:1581  require(IsWinner(), \"Caller is not a winner\") */\n      0x04\n      dup3\n      add\n        /* \"#utility.yul\":3946:3967   */\n      mstore\n        /* \"#utility.yul\":4003:4005   */\n      0x16\n        /* \"#utility.yul\":3983:4001   */\n      0x24\n      dup3\n      add\n        /* \"#utility.yul\":3976:4006   */\n      mstore\n        /* \"#utility.yul\":4042:4066   */\n      0x43616c6c6572206973206e6f7420612077696e6e657200000000000000000000\n        /* \"#utility.yul\":4022:4040   */\n      0x44\n      dup3\n      add\n        /* \"#utility.yul\":4015:4067   */\n      mstore\n        /* \"#utility.yul\":4084:4102   */\n      0x64\n      add\n        /* \"Lottery.sol\":1536:1581  require(IsWinner(), \"Caller is not a winner\") */\n      tag_129\n        /* \"#utility.yul\":3762:4108   */\n      jump\n        /* \"Lottery.sol\":1536:1581  require(IsWinner(), \"Caller is not a winner\") */\n    tag_168:\n        /* \"Lottery.sol\":3750:3760  msg.sender */\n      caller\n        /* \"Lottery.sol\":3717:3739  address payable winner */\n      0x00\n        /* \"Lottery.sol\":3798:3814  winnings[winner] */\n      dup2\n      dup2\n      mstore\n        /* \"Lottery.sol\":3798:3806  winnings */\n      0x05\n        /* \"Lottery.sol\":3798:3814  winnings[winner] */\n      0x20\n      mstore\n      0x40\n      dup1\n      dup3\n      keccak256\n      dup1\n      sload\n        /* \"Lottery.sol\":3824:3844  winnings[winner] = 0 */\n      swap1\n      dup4\n      swap1\n      sstore\n        /* \"Lottery.sol\":3855:3887  winner.transfer(reward2Transfer) */\n      swap1\n      mload\n        /* \"Lottery.sol\":3798:3814  winnings[winner] */\n      swap1\n      swap2\n        /* \"Lottery.sol\":3750:3760  msg.sender */\n      dup4\n      swap2\n        /* \"Lottery.sol\":3855:3887  winner.transfer(reward2Transfer) */\n      dup4\n      iszero\n      0x08fc\n      mul\n      swap2\n        /* \"Lottery.sol\":3798:3814  winnings[winner] */\n      dup5\n      swap2\n        /* \"Lottery.sol\":3855:3887  winner.transfer(reward2Transfer) */\n      swap1\n      dup2\n        /* \"Lottery.sol\":3717:3739  address payable winner */\n      dup2\n        /* \"Lottery.sol\":3855:3887  winner.transfer(reward2Transfer) */\n      dup2\n        /* \"Lottery.sol\":3798:3814  winnings[winner] */\n      dup6\n        /* \"Lottery.sol\":3750:3760  msg.sender */\n      dup9\n        /* \"Lottery.sol\":3855:3887  winner.transfer(reward2Transfer) */\n      dup9\n      call\n      swap4\n      pop\n      pop\n      pop\n      pop\n      iszero\n      dup1\n      iszero\n      tag_133\n      jumpi\n      returndatasize\n      0x00\n      dup1\n      returndatacopy\n      revert(0x00, returndatasize)\n        /* \"Lottery.sol\":1936:2507  function BuyTickets() public payable {... */\n    tag_83:\n        /* \"Lottery.sol\":2004:2027  msg.value % ticketPrice */\n      tag_175\n        /* \"Lottery.sol\":731:738  1 ether */\n      0x0de0b6b3a7640000\n        /* \"Lottery.sol\":2004:2013  msg.value */\n      callvalue\n        /* \"Lottery.sol\":2004:2027  msg.value % ticketPrice */\n      tag_146\n      jump\t// in\n    tag_175:\n        /* \"Lottery.sol\":2004:2032  msg.value % ticketPrice == 0 */\n      iszero\n        /* \"Lottery.sol\":2127:2156  Strings.toString(ticketPrice) */\n      tag_176\n        /* \"Lottery.sol\":731:738  1 ether */\n      0x0de0b6b3a7640000\n        /* \"Lottery.sol\":2127:2143  Strings.toString */\n      tag_177\n        /* \"Lottery.sol\":2127:2156  Strings.toString(ticketPrice) */\n      jump\t// in\n    tag_176:\n        /* \"Lottery.sol\":2046:2196  string.concat(... */\n      add(0x20, mload(0x40))\n      tag_178\n      swap2\n      swap1\n      tag_179\n      jump\t// in\n    tag_178:\n      mload(0x40)\n      0x20\n      dup2\n      dup4\n      sub\n      sub\n      dup2\n      mstore\n      swap1\n      0x40\n      mstore\n        /* \"Lottery.sol\":1983:2206  require(... */\n      swap1\n      tag_180\n      jumpi\n      mload(0x40)\n      shl(0xe5, 0x461bcd)\n      dup2\n      mstore\n      0x04\n      add\n      tag_129\n      swap2\n      swap1\n      tag_182\n      jump\t// in\n    tag_180:\n      pop\n        /* \"Lottery.sol\":2216:2241  uint256 numOfTicketsToBuy */\n      0x00\n        /* \"Lottery.sol\":2244:2267  msg.value / ticketPrice */\n      tag_183\n        /* \"Lottery.sol\":731:738  1 ether */\n      0x0de0b6b3a7640000\n        /* \"Lottery.sol\":2244:2253  msg.value */\n      callvalue\n        /* \"Lottery.sol\":2244:2267  msg.value / ticketPrice */\n      tag_184\n      jump\t// in\n    tag_183:\n        /* \"Lottery.sol\":2216:2267  uint256 numOfTicketsToBuy = msg.value / ticketPrice */\n      swap1\n      pop\n        /* \"Lottery.sol\":2320:2338  RemainingTickets() */\n      tag_185\n        /* \"Lottery.sol\":2320:2336  RemainingTickets */\n      tag_86\n        /* \"Lottery.sol\":2320:2338  RemainingTickets() */\n      jump\t// in\n    tag_185:\n        /* \"Lottery.sol\":2299:2316  numOfTicketsToBuy */\n      dup2\n        /* \"Lottery.sol\":2299:2338  numOfTicketsToBuy <= RemainingTickets() */\n      gt\n      iszero\n        /* \"Lottery.sol\":2278:2393  require(... */\n      tag_186\n      jumpi\n      mload(0x40)\n      shl(0xe5, 0x461bcd)\n      dup2\n      mstore\n        /* \"#utility.yul\":5684:5686   */\n      0x20\n        /* \"Lottery.sol\":2278:2393  require(... */\n      0x04\n      dup3\n      add\n        /* \"#utility.yul\":5666:5687   */\n      mstore\n        /* \"#utility.yul\":5723:5725   */\n      0x1d\n        /* \"#utility.yul\":5703:5721   */\n      0x24\n      dup3\n      add\n        /* \"#utility.yul\":5696:5726   */\n      mstore\n        /* \"#utility.yul\":5762:5793   */\n      0x4e6f7420656e6f756768207469636b65747320617661696c61626c652e000000\n        /* \"#utility.yul\":5742:5760   */\n      0x44\n      dup3\n      add\n        /* \"#utility.yul\":5735:5794   */\n      mstore\n        /* \"#utility.yul\":5811:5829   */\n      0x64\n      add\n        /* \"Lottery.sol\":2278:2393  require(... */\n      tag_129\n        /* \"#utility.yul\":5482:5835   */\n      jump\n        /* \"Lottery.sol\":2278:2393  require(... */\n    tag_186:\n        /* \"Lottery.sol\":2409:2418  uint256 i */\n      0x00\n        /* \"Lottery.sol\":2404:2501  for (uint256 i = 0; i < numOfTicketsToBuy; i++) {... */\n    tag_189:\n        /* \"Lottery.sol\":2428:2445  numOfTicketsToBuy */\n      dup2\n        /* \"Lottery.sol\":2424:2425  i */\n      dup2\n        /* \"Lottery.sol\":2424:2445  i < numOfTicketsToBuy */\n      lt\n        /* \"Lottery.sol\":2404:2501  for (uint256 i = 0; i < numOfTicketsToBuy; i++) {... */\n      iszero\n      tag_190\n      jumpi\n        /* \"Lottery.sol\":2466:2473  tickets */\n      0x06\n        /* \"Lottery.sol\":2466:2490  tickets.push(msg.sender) */\n      dup1\n      sload\n      0x01\n      dup2\n      add\n      dup3\n      sstore\n      0x00\n      swap2\n      swap1\n      swap2\n      mstore\n      0xf652222313e28459528d920b65115c16c04f3efc82aaedc97be59f3f377c0d3f\n      add\n      dup1\n      sload\n      not(0xffffffffffffffffffffffffffffffffffffffff)\n      and\n        /* \"Lottery.sol\":2479:2489  msg.sender */\n      caller\n        /* \"Lottery.sol\":2466:2490  tickets.push(msg.sender) */\n      or\n      swap1\n      sstore\n        /* \"Lottery.sol\":2447:2450  i++ */\n      dup1\n      tag_193\n      dup2\n      tag_194\n      jump\t// in\n    tag_193:\n      swap2\n      pop\n      pop\n        /* \"Lottery.sol\":2404:2501  for (uint256 i = 0; i < numOfTicketsToBuy; i++) {... */\n      jump(tag_189)\n    tag_190:\n      pop\n        /* \"Lottery.sol\":1973:2507  {... */\n      pop\n        /* \"Lottery.sol\":1936:2507  function BuyTickets() public payable {... */\n      jump\t// out\n        /* \"Lottery.sol\":4727:4836  function RemainingTickets() public view returns (uint256) {... */\n    tag_86:\n        /* \"Lottery.sol\":4815:4822  tickets */\n      0x06\n        /* \"Lottery.sol\":4815:4829  tickets.length */\n      sload\n        /* \"Lottery.sol\":4776:4783  uint256 */\n      0x00\n      swap1\n        /* \"Lottery.sol\":4802:4829  maxTickets - tickets.length */\n      tag_196\n      swap1\n        /* \"Lottery.sol\":781:784  100 */\n      0x64\n        /* \"Lottery.sol\":4802:4829  maxTickets - tickets.length */\n      tag_142\n      jump\t// in\n    tag_196:\n        /* \"Lottery.sol\":4795:4829  return maxTickets - tickets.length */\n      swap1\n      pop\n        /* \"Lottery.sol\":4727:4836  function RemainingTickets() public view returns (uint256) {... */\n      swap1\n      jump\t// out\n        /* \"Lottery.sol\":3900:4233  function RefundAll() public {... */\n    tag_99:\n        /* \"Lottery.sol\":3965:3975  expiration */\n      sload(0x00)\n        /* \"Lottery.sol\":3946:3961  block.timestamp */\n      timestamp\n        /* \"Lottery.sol\":3946:3975  block.timestamp >= expiration */\n      lt\n      iszero\n        /* \"Lottery.sol\":3938:4007  require(block.timestamp >= expiration, \"the lottery not expired yet\") */\n      tag_199\n      jumpi\n      mload(0x40)\n      shl(0xe5, 0x461bcd)\n      dup2\n      mstore\n        /* \"#utility.yul\":6182:6184   */\n      0x20\n        /* \"Lottery.sol\":3938:4007  require(block.timestamp >= expiration, \"the lottery not expired yet\") */\n      0x04\n      dup3\n      add\n        /* \"#utility.yul\":6164:6185   */\n      mstore\n        /* \"#utility.yul\":6221:6223   */\n      0x1b\n        /* \"#utility.yul\":6201:6219   */\n      0x24\n      dup3\n      add\n        /* \"#utility.yul\":6194:6224   */\n      mstore\n        /* \"#utility.yul\":6260:6289   */\n      0x746865206c6f7474657279206e6f742065787069726564207965740000000000\n        /* \"#utility.yul\":6240:6258   */\n      0x44\n      dup3\n      add\n        /* \"#utility.yul\":6233:6290   */\n      mstore\n        /* \"#utility.yul\":6307:6325   */\n      0x64\n      add\n        /* \"Lottery.sol\":3938:4007  require(block.timestamp >= expiration, \"the lottery not expired yet\") */\n      tag_129\n        /* \"#utility.yul\":5980:6331   */\n      jump\n        /* \"Lottery.sol\":3938:4007  require(block.timestamp >= expiration, \"the lottery not expired yet\") */\n    tag_199:\n        /* \"Lottery.sol\":4023:4032  uint256 i */\n      0x00\n        /* \"Lottery.sol\":4018:4203  for (uint256 i = 0; i < tickets.length; i++) {... */\n    tag_202:\n        /* \"Lottery.sol\":4042:4049  tickets */\n      0x06\n        /* \"Lottery.sol\":4042:4056  tickets.length */\n      sload\n        /* \"Lottery.sol\":4038:4056  i < tickets.length */\n      dup2\n      lt\n        /* \"Lottery.sol\":4018:4203  for (uint256 i = 0; i < tickets.length; i++) {... */\n      iszero\n      tag_203\n      jumpi\n        /* \"Lottery.sol\":4077:4095  address payable to */\n      0x00\n        /* \"Lottery.sol\":4106:4113  tickets */\n      0x06\n        /* \"Lottery.sol\":4114:4115  i */\n      dup3\n        /* \"Lottery.sol\":4106:4116  tickets[i] */\n      dup2\n      sload\n      dup2\n      lt\n      tag_206\n      jumpi\n      tag_206\n      tag_149\n      jump\t// in\n    tag_206:\n      0x00\n      swap2\n      dup3\n      mstore\n      0x20\n      dup3\n      keccak256\n      add\n      sload\n        /* \"Lottery.sol\":4131:4138  tickets */\n      0x06\n        /* \"Lottery.sol\":4131:4141  tickets[i] */\n      dup1\n      sload\n      sub(shl(0xa0, 0x01), 0x01)\n        /* \"Lottery.sol\":4106:4116  tickets[i] */\n      swap1\n      swap3\n      and\n      swap4\n      pop\n        /* \"Lottery.sol\":4131:4138  tickets */\n      swap1\n        /* \"Lottery.sol\":4139:4140  i */\n      dup5\n      swap1\n        /* \"Lottery.sol\":4131:4141  tickets[i] */\n      dup2\n      lt\n      tag_209\n      jumpi\n      tag_209\n      tag_149\n      jump\t// in\n    tag_209:\n      0x00\n      swap2\n      dup3\n      mstore\n      0x20\n      dup3\n      keccak256\n      add\n        /* \"Lottery.sol\":4131:4154  tickets[i] = address(0) */\n      dup1\n      sload\n      not(0xffffffffffffffffffffffffffffffffffffffff)\n      and\n      sub(shl(0xa0, 0x01), 0x01)\n      swap4\n      dup5\n      and\n      or\n      swap1\n      sstore\n        /* \"Lottery.sol\":4168:4192  to.transfer(ticketPrice) */\n      mload(0x40)\n        /* \"Lottery.sol\":4168:4179  to.transfer */\n      swap2\n      dup4\n      and\n      swap2\n        /* \"Lottery.sol\":731:738  1 ether */\n      0x0de0b6b3a7640000\n      swap1\n        /* \"Lottery.sol\":4131:4141  tickets[i] */\n      dup3\n        /* \"Lottery.sol\":4168:4192  to.transfer(ticketPrice) */\n      dup2\n        /* \"Lottery.sol\":4131:4141  tickets[i] */\n      dup2\n        /* \"Lottery.sol\":4168:4192  to.transfer(ticketPrice) */\n      dup2\n        /* \"Lottery.sol\":731:738  1 ether */\n      dup6\n        /* \"Lottery.sol\":4168:4179  to.transfer */\n      dup9\n        /* \"Lottery.sol\":4131:4141  tickets[i] */\n      dup4\n        /* \"Lottery.sol\":4168:4192  to.transfer(ticketPrice) */\n      call\n      swap4\n      pop\n      pop\n      pop\n      pop\n      iszero\n      dup1\n      iszero\n      tag_212\n      jumpi\n      returndatasize\n      0x00\n      dup1\n      returndatacopy\n      revert(0x00, returndatasize)\n    tag_212:\n      pop\n        /* \"Lottery.sol\":4063:4203  {... */\n      pop\n        /* \"Lottery.sol\":4058:4061  i++ */\n      dup1\n      dup1\n      tag_213\n      swap1\n      tag_194\n      jump\t// in\n    tag_213:\n      swap2\n      pop\n      pop\n        /* \"Lottery.sol\":4018:4203  for (uint256 i = 0; i < tickets.length; i++) {... */\n      jump(tag_202)\n    tag_203:\n      pop\n        /* \"Lottery.sol\":4212:4226  delete tickets */\n      tag_214\n        /* \"Lottery.sol\":4219:4226  tickets */\n      0x06\n      0x00\n        /* \"Lottery.sol\":4212:4226  delete tickets */\n      tag_159\n      jump\t// in\n    tag_214:\n        /* \"Lottery.sol\":3900:4233  function RefundAll() public {... */\n      jump\t// out\n        /* \"Lottery.sol\":4607:4721  function CurrentWinningReward() public view returns (uint256) {... */\n    tag_106:\n        /* \"Lottery.sol\":4686:4693  tickets */\n      0x06\n        /* \"Lottery.sol\":4686:4700  tickets.length */\n      sload\n        /* \"Lottery.sol\":4660:4667  uint256 */\n      0x00\n      swap1\n        /* \"Lottery.sol\":4686:4714  tickets.length * ticketPrice */\n      tag_196\n      swap1\n        /* \"Lottery.sol\":731:738  1 ether */\n      0x0de0b6b3a7640000\n      swap1\n        /* \"Lottery.sol\":4686:4714  tickets.length * ticketPrice */\n      tag_153\n      jump\t// in\n        /* \"Lottery.sol\":3241:3443  function restartDraw() public isOperator {... */\n    tag_121:\n        /* \"Lottery.sol\":1406:1421  lotteryOperator */\n      and(sub(shl(0xa0, 0x01), 0x01), sload(0x01))\n        /* \"Lottery.sol\":1392:1402  msg.sender */\n      caller\n        /* \"Lottery.sol\":1392:1421  msg.sender == lotteryOperator */\n      eq\n        /* \"Lottery.sol\":1370:1482  require(... */\n      tag_219\n      jumpi\n      mload(0x40)\n      shl(0xe5, 0x461bcd)\n      dup2\n      mstore\n        /* \"#utility.yul\":2006:2008   */\n      0x20\n        /* \"Lottery.sol\":1370:1482  require(... */\n      0x04\n      dup3\n      add\n        /* \"#utility.yul\":1988:2009   */\n      mstore\n        /* \"#utility.yul\":2045:2047   */\n      0x22\n        /* \"#utility.yul\":2025:2043   */\n      0x24\n      dup3\n      add\n        /* \"#utility.yul\":2018:2048   */\n      mstore\n        /* \"#utility.yul\":2084:2118   */\n      0x43616c6c6572206973206e6f7420746865206c6f7474657279206f7065726174\n        /* \"#utility.yul\":2064:2082   */\n      0x44\n      dup3\n      add\n        /* \"#utility.yul\":2057:2119   */\n      mstore\n      shl(0xf1, 0x37b9)\n        /* \"#utility.yul\":2135:2153   */\n      0x64\n      dup3\n      add\n        /* \"#utility.yul\":2128:2160   */\n      mstore\n        /* \"#utility.yul\":2177:2196   */\n      0x84\n      add\n        /* \"Lottery.sol\":1370:1482  require(... */\n      tag_129\n        /* \"#utility.yul\":1804:2202   */\n      jump\n        /* \"Lottery.sol\":1370:1482  require(... */\n    tag_219:\n        /* \"Lottery.sol\":3300:3307  tickets */\n      0x06\n        /* \"Lottery.sol\":3300:3314  tickets.length */\n      sload\n        /* \"Lottery.sol\":3300:3319  tickets.length == 0 */\n      iszero\n        /* \"Lottery.sol\":3292:3362  require(tickets.length == 0, \"Cannot Restart Draw as Draw is in play\") */\n      tag_222\n      jumpi\n      mload(0x40)\n      shl(0xe5, 0x461bcd)\n      dup2\n      mstore\n        /* \"#utility.yul\":6538:6540   */\n      0x20\n        /* \"Lottery.sol\":3292:3362  require(tickets.length == 0, \"Cannot Restart Draw as Draw is in play\") */\n      0x04\n      dup3\n      add\n        /* \"#utility.yul\":6520:6541   */\n      mstore\n        /* \"#utility.yul\":6577:6579   */\n      0x26\n        /* \"#utility.yul\":6557:6575   */\n      0x24\n      dup3\n      add\n        /* \"#utility.yul\":6550:6580   */\n      mstore\n        /* \"#utility.yul\":6616:6650   */\n      0x43616e6e6f742052657374617274204472617720617320447261772069732069\n        /* \"#utility.yul\":6596:6614   */\n      0x44\n      dup3\n      add\n        /* \"#utility.yul\":6589:6651   */\n      mstore\n        /* \"#utility.yul\":6687:6695   */\n      0x6e20706c61790000000000000000000000000000000000000000000000000000\n        /* \"#utility.yul\":6667:6685   */\n      0x64\n      dup3\n      add\n        /* \"#utility.yul\":6660:6696   */\n      mstore\n        /* \"#utility.yul\":6713:6732   */\n      0x84\n      add\n        /* \"Lottery.sol\":3292:3362  require(tickets.length == 0, \"Cannot Restart Draw as Draw is in play\") */\n      tag_129\n        /* \"#utility.yul\":6336:6738   */\n      jump\n        /* \"Lottery.sol\":3292:3362  require(tickets.length == 0, \"Cannot Restart Draw as Draw is in play\") */\n    tag_222:\n        /* \"Lottery.sol\":3373:3387  delete tickets */\n      tag_225\n        /* \"Lottery.sol\":3380:3387  tickets */\n      0x06\n      0x00\n        /* \"Lottery.sol\":3373:3387  delete tickets */\n      tag_159\n      jump\t// in\n    tag_225:\n        /* \"Lottery.sol\":3410:3436  block.timestamp + duration */\n      tag_226\n        /* \"Lottery.sol\":968:981  10080 minutes */\n      0x093a80\n        /* \"Lottery.sol\":3410:3425  block.timestamp */\n      timestamp\n        /* \"Lottery.sol\":3410:3436  block.timestamp + duration */\n      tag_155\n      jump\t// in\n    tag_226:\n        /* \"Lottery.sol\":3397:3407  expiration */\n      0x00\n        /* \"Lottery.sol\":3397:3436  expiration = block.timestamp + duration */\n      sstore\n        /* \"Lottery.sol\":3241:3443  function restartDraw() public isOperator {... */\n      jump\t// out\n        /* \"@openzeppelin/contracts/utils/Strings.sol\":392:1095   */\n    tag_177:\n        /* \"@openzeppelin/contracts/utils/Strings.sol\":448:461   */\n      0x60\n        /* \"@openzeppelin/contracts/utils/Strings.sol\":665:670   */\n      dup2\n        /* \"@openzeppelin/contracts/utils/Strings.sol\":674:675   */\n      0x00\n        /* \"@openzeppelin/contracts/utils/Strings.sol\":665:675   */\n      sub\n        /* \"@openzeppelin/contracts/utils/Strings.sol\":661:712   */\n      tag_228\n      jumpi\n      pop\n      pop\n        /* \"@openzeppelin/contracts/utils/Strings.sol\":691:701   */\n      0x40\n      dup1\n      mload\n      dup1\n      dup3\n      add\n      swap1\n      swap2\n      mstore\n      0x01\n      dup2\n      mstore\n      shl(0xfc, 0x03)\n      0x20\n      dup3\n      add\n      mstore\n      swap1\n        /* \"@openzeppelin/contracts/utils/Strings.sol\":392:1095   */\n      jump\t// out\n        /* \"@openzeppelin/contracts/utils/Strings.sol\":661:712   */\n    tag_228:\n        /* \"@openzeppelin/contracts/utils/Strings.sol\":736:741   */\n      dup2\n        /* \"@openzeppelin/contracts/utils/Strings.sol\":721:733   */\n      0x00\n        /* \"@openzeppelin/contracts/utils/Strings.sol\":775:850   */\n    tag_229:\n        /* \"@openzeppelin/contracts/utils/Strings.sol\":782:791   */\n      dup2\n      iszero\n        /* \"@openzeppelin/contracts/utils/Strings.sol\":775:850   */\n      tag_230\n      jumpi\n        /* \"@openzeppelin/contracts/utils/Strings.sol\":807:815   */\n      dup1\n      tag_231\n      dup2\n      tag_194\n      jump\t// in\n    tag_231:\n      swap2\n      pop\n        /* \"@openzeppelin/contracts/utils/Strings.sol\":829:839   */\n      tag_232\n      swap1\n      pop\n        /* \"@openzeppelin/contracts/utils/Strings.sol\":837:839   */\n      0x0a\n        /* \"@openzeppelin/contracts/utils/Strings.sol\":829:839   */\n      dup4\n      tag_184\n      jump\t// in\n    tag_232:\n      swap2\n      pop\n        /* \"@openzeppelin/contracts/utils/Strings.sol\":775:850   */\n      jump(tag_229)\n    tag_230:\n        /* \"@openzeppelin/contracts/utils/Strings.sol\":859:878   */\n      0x00\n        /* \"@openzeppelin/contracts/utils/Strings.sol\":891:897   */\n      dup2\n        /* \"@openzeppelin/contracts/utils/Strings.sol\":881:898   */\n      0xffffffffffffffff\n      dup2\n      gt\n      iszero\n      tag_234\n      jumpi\n      tag_234\n      tag_235\n      jump\t// in\n    tag_234:\n      mload(0x40)\n      swap1\n      dup1\n      dup3\n      mstore\n      dup1\n      0x1f\n      add\n      not(0x1f)\n      and\n      0x20\n      add\n      dup3\n      add\n      0x40\n      mstore\n      dup1\n      iszero\n      tag_236\n      jumpi\n      0x20\n      dup3\n      add\n      dup2\n      dup1\n      calldatasize\n      dup4\n      calldatacopy\n      add\n      swap1\n      pop\n    tag_236:\n      pop\n        /* \"@openzeppelin/contracts/utils/Strings.sol\":859:898   */\n      swap1\n      pop\n        /* \"@openzeppelin/contracts/utils/Strings.sol\":908:1058   */\n    tag_237:\n        /* \"@openzeppelin/contracts/utils/Strings.sol\":915:925   */\n      dup5\n      iszero\n        /* \"@openzeppelin/contracts/utils/Strings.sol\":908:1058   */\n      tag_238\n      jumpi\n        /* \"@openzeppelin/contracts/utils/Strings.sol\":941:952   */\n      tag_239\n        /* \"@openzeppelin/contracts/utils/Strings.sol\":951:952   */\n      0x01\n        /* \"@openzeppelin/contracts/utils/Strings.sol\":941:952   */\n      dup4\n      tag_142\n      jump\t// in\n    tag_239:\n      swap2\n      pop\n        /* \"@openzeppelin/contracts/utils/Strings.sol\":1009:1019   */\n      tag_240\n        /* \"@openzeppelin/contracts/utils/Strings.sol\":1017:1019   */\n      0x0a\n        /* \"@openzeppelin/contracts/utils/Strings.sol\":1009:1014   */\n      dup7\n        /* \"@openzeppelin/contracts/utils/Strings.sol\":1009:1019   */\n      tag_146\n      jump\t// in\n    tag_240:\n        /* \"@openzeppelin/contracts/utils/Strings.sol\":996:1020   */\n      tag_241\n      swap1\n        /* \"@openzeppelin/contracts/utils/Strings.sol\":996:998   */\n      0x30\n        /* \"@openzeppelin/contracts/utils/Strings.sol\":996:1020   */\n      tag_155\n      jump\t// in\n    tag_241:\n        /* \"@openzeppelin/contracts/utils/Strings.sol\":983:1022   */\n      0xf8\n      shl\n        /* \"@openzeppelin/contracts/utils/Strings.sol\":966:972   */\n      dup2\n        /* \"@openzeppelin/contracts/utils/Strings.sol\":973:979   */\n      dup4\n        /* \"@openzeppelin/contracts/utils/Strings.sol\":966:980   */\n      dup2\n      mload\n      dup2\n      lt\n      tag_243\n      jumpi\n      tag_243\n      tag_149\n      jump\t// in\n    tag_243:\n      0x20\n      add\n      add\n        /* \"@openzeppelin/contracts/utils/Strings.sol\":966:1022   */\n      swap1\n      not(0xffffffffffffffffffffffffffffffffffffffffffffffffffffffffffffff)\n      and\n      swap1\n      dup2\n      0x00\n      byte\n      swap1\n      mstore8\n      pop\n        /* \"@openzeppelin/contracts/utils/Strings.sol\":1036:1047   */\n      tag_244\n        /* \"@openzeppelin/contracts/utils/Strings.sol\":1045:1047   */\n      0x0a\n        /* \"@openzeppelin/contracts/utils/Strings.sol\":1036:1047   */\n      dup7\n      tag_184\n      jump\t// in\n    tag_244:\n      swap5\n      pop\n        /* \"@openzeppelin/contracts/utils/Strings.sol\":908:1058   */\n      jump(tag_237)\n    tag_238:\n        /* \"@openzeppelin/contracts/utils/Strings.sol\":1081:1087   */\n      swap5\n        /* \"@openzeppelin/contracts/utils/Strings.sol\":392:1095   */\n      swap4\n      pop\n      pop\n      pop\n      pop\n      jump\t// out\n    tag_159:\n      pop\n      dup1\n      sload\n      0x00\n      dup3\n      sstore\n      swap1\n      0x00\n      mstore\n      keccak256(0x00, 0x20)\n      swap1\n      dup2\n      add\n      swap1\n      tag_246\n      swap2\n      swap1\n      tag_247\n      jump\t// in\n    tag_246:\n      pop\n      jump\t// out\n    tag_247:\n    tag_248:\n      dup1\n      dup3\n      gt\n      iszero\n      tag_249\n      jumpi\n      0x00\n      dup2\n      sstore\n      0x01\n      add\n      jump(tag_248)\n    tag_249:\n      pop\n      swap1\n      jump\t// out\n        /* \"#utility.yul\":196:877   */\n    tag_63:\n        /* \"#utility.yul\":367:369   */\n      0x20\n        /* \"#utility.yul\":419:440   */\n      dup1\n      dup3\n      mstore\n        /* \"#utility.yul\":489:502   */\n      dup3\n      mload\n        /* \"#utility.yul\":392:410   */\n      dup3\n      dup3\n      add\n        /* \"#utility.yul\":511:533   */\n      dup2\n      swap1\n      mstore\n        /* \"#utility.yul\":338:342   */\n      0x00\n      swap2\n        /* \"#utility.yul\":367:369   */\n      swap1\n        /* \"#utility.yul\":590:605   */\n      dup5\n      dup3\n      add\n      swap1\n        /* \"#utility.yul\":564:566   */\n      0x40\n        /* \"#utility.yul\":549:567   */\n      dup6\n      add\n      swap1\n        /* \"#utility.yul\":338:342   */\n      dup5\n        /* \"#utility.yul\":633:851   */\n    tag_256:\n        /* \"#utility.yul\":647:653   */\n      dup2\n        /* \"#utility.yul\":644:645   */\n      dup2\n        /* \"#utility.yul\":641:654   */\n      lt\n        /* \"#utility.yul\":633:851   */\n      iszero\n      tag_258\n      jumpi\n        /* \"#utility.yul\":712:725   */\n      dup4\n      mload\n      sub(shl(0xa0, 0x01), 0x01)\n        /* \"#utility.yul\":708:770   */\n      and\n        /* \"#utility.yul\":696:771   */\n      dup4\n      mstore\n        /* \"#utility.yul\":826:841   */\n      swap3\n      dup5\n      add\n      swap3\n        /* \"#utility.yul\":791:803   */\n      swap2\n      dup5\n      add\n      swap2\n        /* \"#utility.yul\":669:670   */\n      0x01\n        /* \"#utility.yul\":662:671   */\n      add\n        /* \"#utility.yul\":633:851   */\n      jump(tag_256)\n    tag_258:\n      pop\n        /* \"#utility.yul\":868:871   */\n      swap1\n      swap7\n        /* \"#utility.yul\":196:877   */\n      swap6\n      pop\n      pop\n      pop\n      pop\n      pop\n      pop\n      jump\t// out\n        /* \"#utility.yul\":882:1062   */\n    tag_67:\n        /* \"#utility.yul\":941:947   */\n      0x00\n        /* \"#utility.yul\":994:996   */\n      0x20\n        /* \"#utility.yul\":982:991   */\n      dup3\n        /* \"#utility.yul\":973:980   */\n      dup5\n        /* \"#utility.yul\":969:992   */\n      sub\n        /* \"#utility.yul\":965:997   */\n      slt\n        /* \"#utility.yul\":962:1014   */\n      iszero\n      tag_260\n      jumpi\n        /* \"#utility.yul\":1010:1011   */\n      0x00\n        /* \"#utility.yul\":1007:1008   */\n      dup1\n        /* \"#utility.yul\":1000:1012   */\n      revert\n        /* \"#utility.yul\":962:1014   */\n    tag_260:\n      pop\n        /* \"#utility.yul\":1033:1056   */\n      calldataload\n      swap2\n        /* \"#utility.yul\":882:1062   */\n      swap1\n      pop\n      jump\t// out\n        /* \"#utility.yul\":1490:1799   */\n    tag_111:\n        /* \"#utility.yul\":1549:1555   */\n      0x00\n        /* \"#utility.yul\":1602:1604   */\n      0x20\n        /* \"#utility.yul\":1590:1599   */\n      dup3\n        /* \"#utility.yul\":1581:1588   */\n      dup5\n        /* \"#utility.yul\":1577:1600   */\n      sub\n        /* \"#utility.yul\":1573:1605   */\n      slt\n        /* \"#utility.yul\":1570:1622   */\n      iszero\n      tag_264\n      jumpi\n        /* \"#utility.yul\":1618:1619   */\n      0x00\n        /* \"#utility.yul\":1615:1616   */\n      dup1\n        /* \"#utility.yul\":1608:1620   */\n      revert\n        /* \"#utility.yul\":1570:1622   */\n    tag_264:\n        /* \"#utility.yul\":1657:1666   */\n      dup2\n        /* \"#utility.yul\":1644:1667   */\n      calldataload\n      sub(shl(0xa0, 0x01), 0x01)\n        /* \"#utility.yul\":1700:1705   */\n      dup2\n        /* \"#utility.yul\":1696:1750   */\n      and\n        /* \"#utility.yul\":1689:1694   */\n      dup2\n        /* \"#utility.yul\":1686:1751   */\n      eq\n        /* \"#utility.yul\":1676:1769   */\n      tag_265\n      jumpi\n        /* \"#utility.yul\":1765:1766   */\n      0x00\n        /* \"#utility.yul\":1762:1763   */\n      dup1\n        /* \"#utility.yul\":1755:1767   */\n      revert\n        /* \"#utility.yul\":1676:1769   */\n    tag_265:\n        /* \"#utility.yul\":1788:1793   */\n      swap4\n        /* \"#utility.yul\":1490:1799   */\n      swap3\n      pop\n      pop\n      pop\n      jump\t// out\n        /* \"#utility.yul\":2561:2688   */\n    tag_250:\n        /* \"#utility.yul\":2622:2632   */\n      0x4e487b71\n        /* \"#utility.yul\":2617:2620   */\n      0xe0\n        /* \"#utility.yul\":2613:2633   */\n      shl\n        /* \"#utility.yul\":2610:2611   */\n      0x00\n        /* \"#utility.yul\":2603:2634   */\n      mstore\n        /* \"#utility.yul\":2653:2657   */\n      0x11\n        /* \"#utility.yul\":2650:2651   */\n      0x04\n        /* \"#utility.yul\":2643:2658   */\n      mstore\n        /* \"#utility.yul\":2677:2681   */\n      0x24\n        /* \"#utility.yul\":2674:2675   */\n      0x00\n        /* \"#utility.yul\":2667:2682   */\n      revert\n        /* \"#utility.yul\":2693:2818   */\n    tag_142:\n        /* \"#utility.yul\":2733:2737   */\n      0x00\n        /* \"#utility.yul\":2761:2762   */\n      dup3\n        /* \"#utility.yul\":2758:2759   */\n      dup3\n        /* \"#utility.yul\":2755:2763   */\n      lt\n        /* \"#utility.yul\":2752:2786   */\n      iszero\n      tag_271\n      jumpi\n        /* \"#utility.yul\":2766:2784   */\n      tag_271\n      tag_250\n      jump\t// in\n    tag_271:\n      pop\n        /* \"#utility.yul\":2803:2812   */\n      sub\n      swap1\n        /* \"#utility.yul\":2693:2818   */\n      jump\t// out\n        /* \"#utility.yul\":3075:3202   */\n    tag_251:\n        /* \"#utility.yul\":3136:3146   */\n      0x4e487b71\n        /* \"#utility.yul\":3131:3134   */\n      0xe0\n        /* \"#utility.yul\":3127:3147   */\n      shl\n        /* \"#utility.yul\":3124:3125   */\n      0x00\n        /* \"#utility.yul\":3117:3148   */\n      mstore\n        /* \"#utility.yul\":3167:3171   */\n      0x12\n        /* \"#utility.yul\":3164:3165   */\n      0x04\n        /* \"#utility.yul\":3157:3172   */\n      mstore\n        /* \"#utility.yul\":3191:3195   */\n      0x24\n        /* \"#utility.yul\":3188:3189   */\n      0x00\n        /* \"#utility.yul\":3181:3196   */\n      revert\n        /* \"#utility.yul\":3207:3319   */\n    tag_146:\n        /* \"#utility.yul\":3239:3240   */\n      0x00\n        /* \"#utility.yul\":3265:3266   */\n      dup3\n        /* \"#utility.yul\":3255:3290   */\n      tag_276\n      jumpi\n        /* \"#utility.yul\":3270:3288   */\n      tag_276\n      tag_251\n      jump\t// in\n    tag_276:\n      pop\n        /* \"#utility.yul\":3304:3313   */\n      mod\n      swap1\n        /* \"#utility.yul\":3207:3319   */\n      jump\t// out\n        /* \"#utility.yul\":3324:3451   */\n    tag_149:\n        /* \"#utility.yul\":3385:3395   */\n      0x4e487b71\n        /* \"#utility.yul\":3380:3383   */\n      0xe0\n        /* \"#utility.yul\":3376:3396   */\n      shl\n        /* \"#utility.yul\":3373:3374   */\n      0x00\n        /* \"#utility.yul\":3366:3397   */\n      mstore\n        /* \"#utility.yul\":3416:3420   */\n      0x32\n        /* \"#utility.yul\":3413:3414   */\n      0x04\n        /* \"#utility.yul\":3406:3421   */\n      mstore\n        /* \"#utility.yul\":3440:3444   */\n      0x24\n        /* \"#utility.yul\":3437:3438   */\n      0x00\n        /* \"#utility.yul\":3430:3445   */\n      revert\n        /* \"#utility.yul\":3456:3624   */\n    tag_153:\n        /* \"#utility.yul\":3496:3503   */\n      0x00\n        /* \"#utility.yul\":3562:3563   */\n      dup2\n        /* \"#utility.yul\":3558:3559   */\n      0x00\n        /* \"#utility.yul\":3554:3560   */\n      not\n        /* \"#utility.yul\":3550:3564   */\n      div\n        /* \"#utility.yul\":3547:3548   */\n      dup4\n        /* \"#utility.yul\":3544:3565   */\n      gt\n        /* \"#utility.yul\":3539:3540   */\n      dup3\n        /* \"#utility.yul\":3532:3541   */\n      iszero\n        /* \"#utility.yul\":3525:3542   */\n      iszero\n        /* \"#utility.yul\":3521:3566   */\n      and\n        /* \"#utility.yul\":3518:3589   */\n      iszero\n      tag_280\n      jumpi\n        /* \"#utility.yul\":3569:3587   */\n      tag_280\n      tag_250\n      jump\t// in\n    tag_280:\n      pop\n        /* \"#utility.yul\":3609:3618   */\n      mul\n      swap1\n        /* \"#utility.yul\":3456:3624   */\n      jump\t// out\n        /* \"#utility.yul\":3629:3757   */\n    tag_155:\n        /* \"#utility.yul\":3669:3672   */\n      0x00\n        /* \"#utility.yul\":3700:3701   */\n      dup3\n        /* \"#utility.yul\":3696:3702   */\n      not\n        /* \"#utility.yul\":3693:3694   */\n      dup3\n        /* \"#utility.yul\":3690:3703   */\n      gt\n        /* \"#utility.yul\":3687:3726   */\n      iszero\n      tag_283\n      jumpi\n        /* \"#utility.yul\":3706:3724   */\n      tag_283\n      tag_250\n      jump\t// in\n    tag_283:\n      pop\n        /* \"#utility.yul\":3742:3751   */\n      add\n      swap1\n        /* \"#utility.yul\":3629:3757   */\n      jump\t// out\n        /* \"#utility.yul\":4113:4371   */\n    tag_252:\n        /* \"#utility.yul\":4185:4186   */\n      0x00\n        /* \"#utility.yul\":4195:4308   */\n    tag_286:\n        /* \"#utility.yul\":4209:4215   */\n      dup4\n        /* \"#utility.yul\":4206:4207   */\n      dup2\n        /* \"#utility.yul\":4203:4216   */\n      lt\n        /* \"#utility.yul\":4195:4308   */\n      iszero\n      tag_288\n      jumpi\n        /* \"#utility.yul\":4285:4296   */\n      dup2\n      dup2\n      add\n        /* \"#utility.yul\":4279:4297   */\n      mload\n        /* \"#utility.yul\":4266:4277   */\n      dup4\n      dup3\n      add\n        /* \"#utility.yul\":4259:4298   */\n      mstore\n        /* \"#utility.yul\":4231:4233   */\n      0x20\n        /* \"#utility.yul\":4224:4234   */\n      add\n        /* \"#utility.yul\":4195:4308   */\n      jump(tag_286)\n    tag_288:\n        /* \"#utility.yul\":4326:4332   */\n      dup4\n        /* \"#utility.yul\":4323:4324   */\n      dup2\n        /* \"#utility.yul\":4320:4333   */\n      gt\n        /* \"#utility.yul\":4317:4365   */\n      iszero\n      tag_289\n      jumpi\n        /* \"#utility.yul\":4361:4362   */\n      0x00\n        /* \"#utility.yul\":4352:4358   */\n      dup5\n        /* \"#utility.yul\":4347:4350   */\n      dup5\n        /* \"#utility.yul\":4343:4359   */\n      add\n        /* \"#utility.yul\":4336:4363   */\n      mstore\n        /* \"#utility.yul\":4317:4365   */\n    tag_289:\n      pop\n        /* \"#utility.yul\":4113:4371   */\n      pop\n      pop\n      pop\n      jump\t// out\n        /* \"#utility.yul\":4376:4964   */\n    tag_179:\n        /* \"#utility.yul\":4718:4750   */\n      0x7468652076616c7565206d757374206265206d756c7469706c65206f66200000\n        /* \"#utility.yul\":4713:4716   */\n      dup2\n        /* \"#utility.yul\":4706:4751   */\n      mstore\n        /* \"#utility.yul\":4688:4691   */\n      0x00\n        /* \"#utility.yul\":4780:4786   */\n      dup3\n        /* \"#utility.yul\":4774:4787   */\n      mload\n        /* \"#utility.yul\":4796:4858   */\n      tag_291\n        /* \"#utility.yul\":4851:4857   */\n      dup2\n        /* \"#utility.yul\":4846:4848   */\n      0x1e\n        /* \"#utility.yul\":4841:4844   */\n      dup6\n        /* \"#utility.yul\":4837:4849   */\n      add\n        /* \"#utility.yul\":4830:4834   */\n      0x20\n        /* \"#utility.yul\":4822:4828   */\n      dup8\n        /* \"#utility.yul\":4818:4835   */\n      add\n        /* \"#utility.yul\":4796:4858   */\n      tag_252\n      jump\t// in\n    tag_291:\n        /* \"#utility.yul\":4922:4930   */\n      0x2045746865720000000000000000000000000000000000000000000000000000\n        /* \"#utility.yul\":4917:4919   */\n      0x1e\n        /* \"#utility.yul\":4877:4893   */\n      swap4\n      swap1\n      swap2\n      add\n        /* \"#utility.yul\":4909:4920   */\n      swap3\n      dup4\n      add\n        /* \"#utility.yul\":4902:4931   */\n      mstore\n      pop\n        /* \"#utility.yul\":4955:4957   */\n      0x24\n        /* \"#utility.yul\":4947:4958   */\n      add\n      swap2\n        /* \"#utility.yul\":4376:4964   */\n      swap1\n      pop\n      jump\t// out\n        /* \"#utility.yul\":4969:5352   */\n    tag_182:\n        /* \"#utility.yul\":5118:5120   */\n      0x20\n        /* \"#utility.yul\":5107:5116   */\n      dup2\n        /* \"#utility.yul\":5100:5121   */\n      mstore\n        /* \"#utility.yul\":5081:5085   */\n      0x00\n        /* \"#utility.yul\":5150:5156   */\n      dup3\n        /* \"#utility.yul\":5144:5157   */\n      mload\n        /* \"#utility.yul\":5193:5199   */\n      dup1\n        /* \"#utility.yul\":5188:5190   */\n      0x20\n        /* \"#utility.yul\":5177:5186   */\n      dup5\n        /* \"#utility.yul\":5173:5191   */\n      add\n        /* \"#utility.yul\":5166:5200   */\n      mstore\n        /* \"#utility.yul\":5209:5275   */\n      tag_293\n        /* \"#utility.yul\":5268:5274   */\n      dup2\n        /* \"#utility.yul\":5263:5265   */\n      0x40\n        /* \"#utility.yul\":5252:5261   */\n      dup6\n        /* \"#utility.yul\":5248:5266   */\n      add\n        /* \"#utility.yul\":5243:5245   */\n      0x20\n        /* \"#utility.yul\":5235:5241   */\n      dup8\n        /* \"#utility.yul\":5231:5246   */\n      add\n        /* \"#utility.yul\":5209:5275   */\n      tag_252\n      jump\t// in\n    tag_293:\n        /* \"#utility.yul\":5336:5338   */\n      0x1f\n        /* \"#utility.yul\":5315:5330   */\n      add\n      not(0x1f)\n        /* \"#utility.yul\":5311:5340   */\n      and\n        /* \"#utility.yul\":5296:5341   */\n      swap2\n      swap1\n      swap2\n      add\n        /* \"#utility.yul\":5343:5345   */\n      0x40\n        /* \"#utility.yul\":5292:5346   */\n      add\n      swap3\n        /* \"#utility.yul\":4969:5352   */\n      swap2\n      pop\n      pop\n      jump\t// out\n        /* \"#utility.yul\":5357:5477   */\n    tag_184:\n        /* \"#utility.yul\":5397:5398   */\n      0x00\n        /* \"#utility.yul\":5423:5424   */\n      dup3\n        /* \"#utility.yul\":5413:5448   */\n      tag_296\n      jumpi\n        /* \"#utility.yul\":5428:5446   */\n      tag_296\n      tag_251\n      jump\t// in\n    tag_296:\n      pop\n        /* \"#utility.yul\":5462:5471   */\n      div\n      swap1\n        /* \"#utility.yul\":5357:5477   */\n      jump\t// out\n        /* \"#utility.yul\":5840:5975   */\n    tag_194:\n        /* \"#utility.yul\":5879:5882   */\n      0x00\n        /* \"#utility.yul\":5900:5917   */\n      0x01\n      dup3\n      add\n        /* \"#utility.yul\":5897:5940   */\n      tag_300\n      jumpi\n        /* \"#utility.yul\":5920:5938   */\n      tag_300\n      tag_250\n      jump\t// in\n    tag_300:\n      pop\n        /* \"#utility.yul\":5967:5968   */\n      0x01\n        /* \"#utility.yul\":5956:5969   */\n      add\n      swap1\n        /* \"#utility.yul\":5840:5975   */\n      jump\t// out\n        /* \"#utility.yul\":6743:6870   */\n    tag_235:\n        /* \"#utility.yul\":6804:6814   */\n      0x4e487b71\n        /* \"#utility.yul\":6799:6802   */\n      0xe0\n        /* \"#utility.yul\":6795:6815   */\n      shl\n        /* \"#utility.yul\":6792:6793   */\n      0x00\n        /* \"#utility.yul\":6785:6816   */\n      mstore\n        /* \"#utility.yul\":6835:6839   */\n      0x41\n        /* \"#utility.yul\":6832:6833   */\n      0x04\n        /* \"#utility.yul\":6825:6840   */\n      mstore\n        /* \"#utility.yul\":6859:6863   */\n      0x24\n        /* \"#utility.yul\":6856:6857   */\n      0x00\n        /* \"#utility.yul\":6849:6864   */\n      revert\n\n    auxdata: 0xa26469706673582212205d192ea5c40e8cb6587a0043d7ce6f81d3aa065797ee279da101cfb522ae110f64736f6c634300080d0033\n}\n",
    "bytecode": {
      "linkReferences": {},
      "object": "6080604052600060025534801561001557600080fd5b50600180546001600160a01b0319163317905561003562093a804261003d565b600055610063565b6000821982111561005e57634e487b7160e01b600052601160045260246000fd5b500190565b610f79806100726000396000f3fe6080604052600436106101805760003560e01c806371827b7b116100d6578063ba946d791161007f578063ea3a149911610059578063ea3a1499146103c6578063f2613269146103f3578063fe1881841461040857600080fd5b8063ba946d7914610365578063c6944fa01461037b578063dd64e5341461039057600080fd5b806396c85ef3116100b057806396c85ef31461030c5780639b8947031461033b578063a88f46721461035057600080fd5b806371827b7b146102da57806391d8b14e146102ef57806393a563b5146102f757600080fd5b80634665096d1161013857806350b447121161011257806350b44712146102675780635a58acdd1461029f5780636032a4f9146102bf57600080fd5b80634665096d1461021a5780634788af7c146102305780634ed026221461024557600080fd5b80630fb5a6b4116101695780630fb5a6b4146101d05780631209b1f6146101e757806335580df21461020357600080fd5b806306f7f3bf146101855780630789c607146101ae575b600080fd5b34801561019157600080fd5b5061019b60045481565b6040519081526020015b60405180910390f35b3480156101ba57600080fd5b503360009081526005602052604090205461019b565b3480156101dc57600080fd5b5061019b62093a8081565b3480156101f357600080fd5b5061019b670de0b6b3a764000081565b34801561020f57600080fd5b50610218610428565b005b34801561022657600080fd5b5061019b60005481565b34801561023c57600080fd5b506102186104cf565b34801561025157600080fd5b5061025a6106e5565b6040516101a59190610cf7565b34801561027357600080fd5b50610287610282366004610d44565b610747565b6040516001600160a01b0390911681526020016101a5565b3480156102ab57600080fd5b50600154610287906001600160a01b031681565b3480156102cb57600080fd5b5061019b662386f26fc1000081565b3480156102e657600080fd5b50610218610771565b610218610810565b34801561030357600080fd5b5061019b61094f565b34801561031857600080fd5b5033600090815260056020526040902054151560405190151581526020016101a5565b34801561034757600080fd5b5061019b606481565b34801561035c57600080fd5b50610218610965565b34801561037157600080fd5b5061019b60025481565b34801561038757600080fd5b5061019b610a8a565b34801561039c57600080fd5b5061019b6103ab366004610d5d565b6001600160a01b031660009081526005602052604090205490565b3480156103d257600080fd5b5061019b6103e1366004610d5d565b60056020526000908152604090205481565b3480156103ff57600080fd5b50610218610aa3565b34801561041457600080fd5b50600354610287906001600160a01b031681565b6001546001600160a01b031633146104925760405162461bcd60e51b815260206004820152602260248201527f43616c6c6572206973206e6f7420746865206c6f7474657279206f706572617460448201526137b960f11b60648201526084015b60405180910390fd5b600280546000918290556040513392839183156108fc0291849190818181858888f193505050501580156104ca573d6000803e3d6000fd5b505050565b6001546001600160a01b031633146105345760405162461bcd60e51b815260206004820152602260248201527f43616c6c6572206973206e6f7420746865206c6f7474657279206f706572617460448201526137b960f11b6064820152608401610489565b6006546105835760405162461bcd60e51b815260206004820152601960248201527f4e6f207469636b657473207765726520707572636861736564000000000000006044820152606401610489565b6006546000906105939043610da3565b604080514260208201529140908201819052915060009060600160408051601f1981840301815291905280516020909101206006549091506000906105d89083610dd0565b90506000600682815481106105ef576105ef610de4565b6000918252602090912001546003805473ffffffffffffffffffffffffffffffffffffffff19166001600160a01b0390921691821790559050610641662386f26fc10000670de0b6b3a7640000610da3565b60065461064e9190610dfa565b6001600160a01b03821660009081526005602052604081208054909190610676908490610e19565b90915550506001600160a01b0381166000908152600560205260409020546004556006546106ac90662386f26fc1000090610dfa565b600260008282546106bd9190610e19565b909155506106cf905060066000610cbd565b6106dc62093a8042610e19565b60005550505050565b6060600680548060200260200160405190810160405280929190818152602001828054801561073d57602002820191906000526020600020905b81546001600160a01b0316815260019091019060200180831161071f575b5050505050905090565b6006818154811061075757600080fd5b6000918252602090912001546001600160a01b0316905081565b336000908152600560205260409020546107cd5760405162461bcd60e51b815260206004820152601660248201527f43616c6c6572206973206e6f7420612077696e6e6572000000000000000000006044820152606401610489565b3360008181526005602052604080822080549083905590519091839183156108fc0291849190818181858888f193505050501580156104ca573d6000803e3d6000fd5b610822670de0b6b3a764000034610dd0565b15610834670de0b6b3a7640000610b9c565b6040516020016108449190610e61565b604051602081830303815290604052906108715760405162461bcd60e51b81526004016104899190610ecd565b506000610886670de0b6b3a764000034610f00565b905061089061094f565b8111156108df5760405162461bcd60e51b815260206004820152601d60248201527f4e6f7420656e6f756768207469636b65747320617661696c61626c652e0000006044820152606401610489565b60005b8181101561094b57600680546001810182556000919091527ff652222313e28459528d920b65115c16c04f3efc82aaedc97be59f3f377c0d3f01805473ffffffffffffffffffffffffffffffffffffffff1916331790558061094381610f14565b9150506108e2565b5050565b600654600090610960906064610da3565b905090565b6000544210156109b75760405162461bcd60e51b815260206004820152601b60248201527f746865206c6f7474657279206e6f7420657870697265642079657400000000006044820152606401610489565b60005b600654811015610a7b576000600682815481106109d9576109d9610de4565b6000918252602082200154600680546001600160a01b0390921693509084908110610a0657610a06610de4565b60009182526020822001805473ffffffffffffffffffffffffffffffffffffffff19166001600160a01b0393841617905560405191831691670de0b6b3a76400009082818181858883f19350505050158015610a66573d6000803e3d6000fd5b50508080610a7390610f14565b9150506109ba565b50610a8860066000610cbd565b565b60065460009061096090670de0b6b3a764000090610dfa565b6001546001600160a01b03163314610b085760405162461bcd60e51b815260206004820152602260248201527f43616c6c6572206973206e6f7420746865206c6f7474657279206f706572617460448201526137b960f11b6064820152608401610489565b60065415610b7e5760405162461bcd60e51b815260206004820152602660248201527f43616e6e6f74205265737461727420447261772061732044726177206973206960448201527f6e20706c617900000000000000000000000000000000000000000000000000006064820152608401610489565b610b8a60066000610cbd565b610b9762093a8042610e19565b600055565b606081600003610bc35750506040805180820190915260018152600360fc1b602082015290565b8160005b8115610bed5780610bd781610f14565b9150610be69050600a83610f00565b9150610bc7565b60008167ffffffffffffffff811115610c0857610c08610f2d565b6040519080825280601f01601f191660200182016040528015610c32576020820181803683370190505b5090505b8415610cb557610c47600183610da3565b9150610c54600a86610dd0565b610c5f906030610e19565b60f81b818381518110610c7457610c74610de4565b60200101907effffffffffffffffffffffffffffffffffffffffffffffffffffffffffffff1916908160001a905350610cae600a86610f00565b9450610c36565b949350505050565b5080546000825590600052602060002090810190610cdb9190610cde565b50565b5b80821115610cf35760008155600101610cdf565b5090565b6020808252825182820181905260009190848201906040850190845b81811015610d385783516001600160a01b031683529284019291840191600101610d13565b50909695505050505050565b600060208284031215610d5657600080fd5b5035919050565b600060208284031215610d6f57600080fd5b81356001600160a01b0381168114610d8657600080fd5b9392505050565b634e487b7160e01b600052601160045260246000fd5b600082821015610db557610db5610d8d565b500390565b634e487b7160e01b600052601260045260246000fd5b600082610ddf57610ddf610dba565b500690565b634e487b7160e01b600052603260045260246000fd5b6000816000190483118215151615610e1457610e14610d8d565b500290565b60008219821115610e2c57610e2c610d8d565b500190565b60005b83811015610e4c578181015183820152602001610e34565b83811115610e5b576000848401525b50505050565b7f7468652076616c7565206d757374206265206d756c7469706c65206f66200000815260008251610e9981601e850160208701610e31565b7f2045746865720000000000000000000000000000000000000000000000000000601e939091019283015250602401919050565b6020815260008251806020840152610eec816040850160208701610e31565b601f01601f19169190910160400192915050565b600082610f0f57610f0f610dba565b500490565b600060018201610f2657610f26610d8d565b5060010190565b634e487b7160e01b600052604160045260246000fdfea26469706673582212205d192ea5c40e8cb6587a0043d7ce6f81d3aa065797ee279da101cfb522ae110f64736f6c634300080d0033",
      "opcodes": "PUSH1 0x80 PUSH1 0x40 MSTORE PUSH1 0x0 PUSH1 0x2 SSTORE CALLVALUE DUP1 ISZERO PUSH2 0x15 JUMPI PUSH1 0x0 DUP1 REVERT JUMPDEST POP PUSH1 0x1 DUP1 SLOAD PUSH1 0x1 PUSH1 0x1 PUSH1 0xA0 SHL SUB NOT AND CALLER OR SWAP1 SSTORE PUSH2 0x35 PUSH3 0x93A80 TIMESTAMP PUSH2 0x3D JUMP JUMPDEST PUSH1 0x0 SSTORE PUSH2 0x63 JUMP JUMPDEST PUSH1 0x0 DUP3 NOT DUP3 GT ISZERO PUSH2 0x5E JUMPI PUSH4 0x4E487B71 PUSH1 0xE0 SHL PUSH1 0x0 MSTORE PUSH1 0x11 PUSH1 0x4 MSTORE PUSH1 0x24 PUSH1 0x0 REVERT JUMPDEST POP ADD SWAP1 JUMP JUMPDEST PUSH2 0xF79 DUP1 PUSH2 0x72 PUSH1 0x0 CODECOPY PUSH1 0x0 RETURN INVALID PUSH1 0x80 PUSH1 0x40 MSTORE PUSH1 0x4 CALLDATASIZE LT PUSH2 0x180 JUMPI PUSH1 0x0 CALLDATALOAD PUSH1 0xE0 SHR DUP1 PUSH4 0x71827B7B GT PUSH2 0xD6 JUMPI DUP1 PUSH4 0xBA946D79 GT PUSH2 0x7F JUMPI DUP1 PUSH4 0xEA3A1499 GT PUSH2 0x59 JUMPI DUP1 PUSH4 0xEA3A1499 EQ PUSH2 0x3C6 JUMPI DUP1 PUSH4 0xF2613269 EQ PUSH2 0x3F3 JUMPI DUP1 PUSH4 0xFE188184 EQ PUSH2 0x408 JUMPI PUSH1 0x0 DUP1 REVERT JUMPDEST DUP1 PUSH4 0xBA946D79 EQ PUSH2 0x365 JUMPI DUP1 PUSH4 0xC6944FA0 EQ PUSH2 0x37B JUMPI DUP1 PUSH4 0xDD64E534 EQ PUSH2 0x390 JUMPI PUSH1 0x0 DUP1 REVERT JUMPDEST DUP1 PUSH4 0x96C85EF3 GT PUSH2 0xB0 JUMPI DUP1 PUSH4 0x96C85EF3 EQ PUSH2 0x30C JUMPI DUP1 PUSH4 0x9B894703 EQ PUSH2 0x33B JUMPI DUP1 PUSH4 0xA88F4672 EQ PUSH2 0x350 JUMPI PUSH1 0x0 DUP1 REVERT JUMPDEST DUP1 PUSH4 0x71827B7B EQ PUSH2 0x2DA JUMPI DUP1 PUSH4 0x91D8B14E EQ PUSH2 0x2EF JUMPI DUP1 PUSH4 0x93A563B5 EQ PUSH2 0x2F7 JUMPI PUSH1 0x0 DUP1 REVERT JUMPDEST DUP1 PUSH4 0x4665096D GT PUSH2 0x138 JUMPI DUP1 PUSH4 0x50B44712 GT PUSH2 0x112 JUMPI DUP1 PUSH4 0x50B44712 EQ PUSH2 0x267 JUMPI DUP1 PUSH4 0x5A58ACDD EQ PUSH2 0x29F JUMPI DUP1 PUSH4 0x6032A4F9 EQ PUSH2 0x2BF JUMPI PUSH1 0x0 DUP1 REVERT JUMPDEST DUP1 PUSH4 0x4665096D EQ PUSH2 0x21A JUMPI DUP1 PUSH4 0x4788AF7C EQ PUSH2 0x230 JUMPI DUP1 PUSH4 0x4ED02622 EQ PUSH2 0x245 JUMPI PUSH1 0x0 DUP1 REVERT JUMPDEST DUP1 PUSH4 0xFB5A6B4 GT PUSH2 0x169 JUMPI DUP1 PUSH4 0xFB5A6B4 EQ PUSH2 0x1D0 JUMPI DUP1 PUSH4 0x1209B1F6 EQ PUSH2 0x1E7 JUMPI DUP1 PUSH4 0x35580DF2 EQ PUSH2 0x203 JUMPI PUSH1 0x0 DUP1 REVERT JUMPDEST DUP1 PUSH4 0x6F7F3BF EQ PUSH2 0x185 JUMPI DUP1 PUSH4 0x789C607 EQ PUSH2 0x1AE JUMPI JUMPDEST PUSH1 0x0 DUP1 REVERT JUMPDEST CALLVALUE DUP1 ISZERO PUSH2 0x191 JUMPI PUSH1 0x0 DUP1 REVERT JUMPDEST POP PUSH2 0x19B PUSH1 0x4 SLOAD DUP2 JUMP JUMPDEST PUSH1 0x40 MLOAD SWAP1 DUP2 MSTORE PUSH1 0x20 ADD JUMPDEST PUSH1 0x40 MLOAD DUP1 SWAP2 SUB SWAP1 RETURN JUMPDEST CALLVALUE DUP1 ISZERO PUSH2 0x1BA JUMPI PUSH1 0x0 DUP1 REVERT JUMPDEST POP CALLER PUSH1 0x0 SWAP1 DUP2 MSTORE PUSH1 0x5 PUSH1 0x20 MSTORE PUSH1 0x40 SWAP1 KECCAK256 SLOAD PUSH2 0x19B JUMP JUMPDEST CALLVALUE DUP1 ISZERO PUSH2 0x1DC JUMPI PUSH1 0x0 DUP1 REVERT JUMPDEST POP PUSH2 0x19B PUSH3 0x93A80 DUP2 JUMP JUMPDEST CALLVALUE DUP1 ISZERO PUSH2 0x1F3 JUMPI PUSH1 0x0 DUP1 REVERT JUMPDEST POP PUSH2 0x19B PUSH8 0xDE0B6B3A7640000 DUP2 JUMP JUMPDEST CALLVALUE DUP1 ISZERO PUSH2 0x20F JUMPI PUSH1 0x0 DUP1 REVERT JUMPDEST POP PUSH2 0x218 PUSH2 0x428 JUMP JUMPDEST STOP JUMPDEST CALLVALUE DUP1 ISZERO PUSH2 0x226 JUMPI PUSH1 0x0 DUP1 REVERT JUMPDEST POP PUSH2 0x19B PUSH1 0x0 SLOAD DUP2 JUMP JUMPDEST CALLVALUE DUP1 ISZERO PUSH2 0x23C JUMPI PUSH1 0x0 DUP1 REVERT JUMPDEST POP PUSH2 0x218 PUSH2 0x4CF JUMP JUMPDEST CALLVALUE DUP1 ISZERO PUSH2 0x251 JUMPI PUSH1 0x0 DUP1 REVERT JUMPDEST POP PUSH2 0x25A PUSH2 0x6E5 JUMP JUMPDEST PUSH1 0x40 MLOAD PUSH2 0x1A5 SWAP2 SWAP1 PUSH2 0xCF7 JUMP JUMPDEST CALLVALUE DUP1 ISZERO PUSH2 0x273 JUMPI PUSH1 0x0 DUP1 REVERT JUMPDEST POP PUSH2 0x287 PUSH2 0x282 CALLDATASIZE PUSH1 0x4 PUSH2 0xD44 JUMP JUMPDEST PUSH2 0x747 JUMP JUMPDEST PUSH1 0x40 MLOAD PUSH1 0x1 PUSH1 0x1 PUSH1 0xA0 SHL SUB SWAP1 SWAP2 AND DUP2 MSTORE PUSH1 0x20 ADD PUSH2 0x1A5 JUMP JUMPDEST CALLVALUE DUP1 ISZERO PUSH2 0x2AB JUMPI PUSH1 0x0 DUP1 REVERT JUMPDEST POP PUSH1 0x1 SLOAD PUSH2 0x287 SWAP1 PUSH1 0x1 PUSH1 0x1 PUSH1 0xA0 SHL SUB AND DUP2 JUMP JUMPDEST CALLVALUE DUP1 ISZERO PUSH2 0x2CB JUMPI PUSH1 0x0 DUP1 REVERT JUMPDEST POP PUSH2 0x19B PUSH7 0x2386F26FC10000 DUP2 JUMP JUMPDEST CALLVALUE DUP1 ISZERO PUSH2 0x2E6 JUMPI PUSH1 0x0 DUP1 REVERT JUMPDEST POP PUSH2 0x218 PUSH2 0x771 JUMP JUMPDEST PUSH2 0x218 PUSH2 0x810 JUMP JUMPDEST CALLVALUE DUP1 ISZERO PUSH2 0x303 JUMPI PUSH1 0x0 DUP1 REVERT JUMPDEST POP PUSH2 0x19B PUSH2 0x94F JUMP JUMPDEST CALLVALUE DUP1 ISZERO PUSH2 0x318 JUMPI PUSH1 0x0 DUP1 REVERT JUMPDEST POP CALLER PUSH1 0x0 SWAP1 DUP2 MSTORE PUSH1 0x5 PUSH1 0x20 MSTORE PUSH1 0x40 SWAP1 KECCAK256 SLOAD ISZERO ISZERO PUSH1 0x40 MLOAD SWAP1 ISZERO ISZERO DUP2 MSTORE PUSH1 0x20 ADD PUSH2 0x1A5 JUMP JUMPDEST CALLVALUE DUP1 ISZERO PUSH2 0x347 JUMPI PUSH1 0x0 DUP1 REVERT JUMPDEST POP PUSH2 0x19B PUSH1 0x64 DUP2 JUMP JUMPDEST CALLVALUE DUP1 ISZERO PUSH2 0x35C JUMPI PUSH1 0x0 DUP1 REVERT JUMPDEST POP PUSH2 0x218 PUSH2 0x965 JUMP JUMPDEST CALLVALUE DUP1 ISZERO PUSH2 0x371 JUMPI PUSH1 0x0 DUP1 REVERT JUMPDEST POP PUSH2 0x19B PUSH1 0x2 SLOAD DUP2 JUMP JUMPDEST CALLVALUE DUP1 ISZERO PUSH2 0x387 JUMPI PUSH1 0x0 DUP1 REVERT JUMPDEST POP PUSH2 0x19B PUSH2 0xA8A JUMP JUMPDEST CALLVALUE DUP1 ISZERO PUSH2 0x39C JUMPI PUSH1 0x0 DUP1 REVERT JUMPDEST POP PUSH2 0x19B PUSH2 0x3AB CALLDATASIZE PUSH1 0x4 PUSH2 0xD5D JUMP JUMPDEST PUSH1 0x1 PUSH1 0x1 PUSH1 0xA0 SHL SUB AND PUSH1 0x0 SWAP1 DUP2 MSTORE PUSH1 0x5 PUSH1 0x20 MSTORE PUSH1 0x40 SWAP1 KECCAK256 SLOAD SWAP1 JUMP JUMPDEST CALLVALUE DUP1 ISZERO PUSH2 0x3D2 JUMPI PUSH1 0x0 DUP1 REVERT JUMPDEST POP PUSH2 0x19B PUSH2 0x3E1 CALLDATASIZE PUSH1 0x4 PUSH2 0xD5D JUMP JUMPDEST PUSH1 0x5 PUSH1 0x20 MSTORE PUSH1 0x0 SWAP1 DUP2 MSTORE PUSH1 0x40 SWAP1 KECCAK256 SLOAD DUP2 JUMP JUMPDEST CALLVALUE DUP1 ISZERO PUSH2 0x3FF JUMPI PUSH1 0x0 DUP1 REVERT JUMPDEST POP PUSH2 0x218 PUSH2 0xAA3 JUMP JUMPDEST CALLVALUE DUP1 ISZERO PUSH2 0x414 JUMPI PUSH1 0x0 DUP1 REVERT JUMPDEST POP PUSH1 0x3 SLOAD PUSH2 0x287 SWAP1 PUSH1 0x1 PUSH1 0x1 PUSH1 0xA0 SHL SUB AND DUP2 JUMP JUMPDEST PUSH1 0x1 SLOAD PUSH1 0x1 PUSH1 0x1 PUSH1 0xA0 SHL SUB AND CALLER EQ PUSH2 0x492 JUMPI PUSH1 0x40 MLOAD PUSH3 0x461BCD PUSH1 0xE5 SHL DUP2 MSTORE PUSH1 0x20 PUSH1 0x4 DUP3 ADD MSTORE PUSH1 0x22 PUSH1 0x24 DUP3 ADD MSTORE PUSH32 0x43616C6C6572206973206E6F7420746865206C6F7474657279206F7065726174 PUSH1 0x44 DUP3 ADD MSTORE PUSH2 0x37B9 PUSH1 0xF1 SHL PUSH1 0x64 DUP3 ADD MSTORE PUSH1 0x84 ADD JUMPDEST PUSH1 0x40 MLOAD DUP1 SWAP2 SUB SWAP1 REVERT JUMPDEST PUSH1 0x2 DUP1 SLOAD PUSH1 0x0 SWAP2 DUP3 SWAP1 SSTORE PUSH1 0x40 MLOAD CALLER SWAP3 DUP4 SWAP2 DUP4 ISZERO PUSH2 0x8FC MUL SWAP2 DUP5 SWAP2 SWAP1 DUP2 DUP2 DUP2 DUP6 DUP9 DUP9 CALL SWAP4 POP POP POP POP ISZERO DUP1 ISZERO PUSH2 0x4CA JUMPI RETURNDATASIZE PUSH1 0x0 DUP1 RETURNDATACOPY RETURNDATASIZE PUSH1 0x0 REVERT JUMPDEST POP POP POP JUMP JUMPDEST PUSH1 0x1 SLOAD PUSH1 0x1 PUSH1 0x1 PUSH1 0xA0 SHL SUB AND CALLER EQ PUSH2 0x534 JUMPI PUSH1 0x40 MLOAD PUSH3 0x461BCD PUSH1 0xE5 SHL DUP2 MSTORE PUSH1 0x20 PUSH1 0x4 DUP3 ADD MSTORE PUSH1 0x22 PUSH1 0x24 DUP3 ADD MSTORE PUSH32 0x43616C6C6572206973206E6F7420746865206C6F7474657279206F7065726174 PUSH1 0x44 DUP3 ADD MSTORE PUSH2 0x37B9 PUSH1 0xF1 SHL PUSH1 0x64 DUP3 ADD MSTORE PUSH1 0x84 ADD PUSH2 0x489 JUMP JUMPDEST PUSH1 0x6 SLOAD PUSH2 0x583 JUMPI PUSH1 0x40 MLOAD PUSH3 0x461BCD PUSH1 0xE5 SHL DUP2 MSTORE PUSH1 0x20 PUSH1 0x4 DUP3 ADD MSTORE PUSH1 0x19 PUSH1 0x24 DUP3 ADD MSTORE PUSH32 0x4E6F207469636B65747320776572652070757263686173656400000000000000 PUSH1 0x44 DUP3 ADD MSTORE PUSH1 0x64 ADD PUSH2 0x489 JUMP JUMPDEST PUSH1 0x6 SLOAD PUSH1 0x0 SWAP1 PUSH2 0x593 SWAP1 NUMBER PUSH2 0xDA3 JUMP JUMPDEST PUSH1 0x40 DUP1 MLOAD TIMESTAMP PUSH1 0x20 DUP3 ADD MSTORE SWAP2 BLOCKHASH SWAP1 DUP3 ADD DUP2 SWAP1 MSTORE SWAP2 POP PUSH1 0x0 SWAP1 PUSH1 0x60 ADD PUSH1 0x40 DUP1 MLOAD PUSH1 0x1F NOT DUP2 DUP5 SUB ADD DUP2 MSTORE SWAP2 SWAP1 MSTORE DUP1 MLOAD PUSH1 0x20 SWAP1 SWAP2 ADD KECCAK256 PUSH1 0x6 SLOAD SWAP1 SWAP2 POP PUSH1 0x0 SWAP1 PUSH2 0x5D8 SWAP1 DUP4 PUSH2 0xDD0 JUMP JUMPDEST SWAP1 POP PUSH1 0x0 PUSH1 0x6 DUP3 DUP2 SLOAD DUP2 LT PUSH2 0x5EF JUMPI PUSH2 0x5EF PUSH2 0xDE4 JUMP JUMPDEST PUSH1 0x0 SWAP2 DUP3 MSTORE PUSH1 0x20 SWAP1 SWAP2 KECCAK256 ADD SLOAD PUSH1 0x3 DUP1 SLOAD PUSH20 0xFFFFFFFFFFFFFFFFFFFFFFFFFFFFFFFFFFFFFFFF NOT AND PUSH1 0x1 PUSH1 0x1 PUSH1 0xA0 SHL SUB SWAP1 SWAP3 AND SWAP2 DUP3 OR SWAP1 SSTORE SWAP1 POP PUSH2 0x641 PUSH7 0x2386F26FC10000 PUSH8 0xDE0B6B3A7640000 PUSH2 0xDA3 JUMP JUMPDEST PUSH1 0x6 SLOAD PUSH2 0x64E SWAP2 SWAP1 PUSH2 0xDFA JUMP JUMPDEST PUSH1 0x1 PUSH1 0x1 PUSH1 0xA0 SHL SUB DUP3 AND PUSH1 0x0 SWAP1 DUP2 MSTORE PUSH1 0x5 PUSH1 0x20 MSTORE PUSH1 0x40 DUP2 KECCAK256 DUP1 SLOAD SWAP1 SWAP2 SWAP1 PUSH2 0x676 SWAP1 DUP5 SWAP1 PUSH2 0xE19 JUMP JUMPDEST SWAP1 SWAP2 SSTORE POP POP PUSH1 0x1 PUSH1 0x1 PUSH1 0xA0 SHL SUB DUP2 AND PUSH1 0x0 SWAP1 DUP2 MSTORE PUSH1 0x5 PUSH1 0x20 MSTORE PUSH1 0x40 SWAP1 KECCAK256 SLOAD PUSH1 0x4 SSTORE PUSH1 0x6 SLOAD PUSH2 0x6AC SWAP1 PUSH7 0x2386F26FC10000 SWAP1 PUSH2 0xDFA JUMP JUMPDEST PUSH1 0x2 PUSH1 0x0 DUP3 DUP3 SLOAD PUSH2 0x6BD SWAP2 SWAP1 PUSH2 0xE19 JUMP JUMPDEST SWAP1 SWAP2 SSTORE POP PUSH2 0x6CF SWAP1 POP PUSH1 0x6 PUSH1 0x0 PUSH2 0xCBD JUMP JUMPDEST PUSH2 0x6DC PUSH3 0x93A80 TIMESTAMP PUSH2 0xE19 JUMP JUMPDEST PUSH1 0x0 SSTORE POP POP POP POP JUMP JUMPDEST PUSH1 0x60 PUSH1 0x6 DUP1 SLOAD DUP1 PUSH1 0x20 MUL PUSH1 0x20 ADD PUSH1 0x40 MLOAD SWAP1 DUP2 ADD PUSH1 0x40 MSTORE DUP1 SWAP3 SWAP2 SWAP1 DUP2 DUP2 MSTORE PUSH1 0x20 ADD DUP3 DUP1 SLOAD DUP1 ISZERO PUSH2 0x73D JUMPI PUSH1 0x20 MUL DUP3 ADD SWAP2 SWAP1 PUSH1 0x0 MSTORE PUSH1 0x20 PUSH1 0x0 KECCAK256 SWAP1 JUMPDEST DUP2 SLOAD PUSH1 0x1 PUSH1 0x1 PUSH1 0xA0 SHL SUB AND DUP2 MSTORE PUSH1 0x1 SWAP1 SWAP2 ADD SWAP1 PUSH1 0x20 ADD DUP1 DUP4 GT PUSH2 0x71F JUMPI JUMPDEST POP POP POP POP POP SWAP1 POP SWAP1 JUMP JUMPDEST PUSH1 0x6 DUP2 DUP2 SLOAD DUP2 LT PUSH2 0x757 JUMPI PUSH1 0x0 DUP1 REVERT JUMPDEST PUSH1 0x0 SWAP2 DUP3 MSTORE PUSH1 0x20 SWAP1 SWAP2 KECCAK256 ADD SLOAD PUSH1 0x1 PUSH1 0x1 PUSH1 0xA0 SHL SUB AND SWAP1 POP DUP2 JUMP JUMPDEST CALLER PUSH1 0x0 SWAP1 DUP2 MSTORE PUSH1 0x5 PUSH1 0x20 MSTORE PUSH1 0x40 SWAP1 KECCAK256 SLOAD PUSH2 0x7CD JUMPI PUSH1 0x40 MLOAD PUSH3 0x461BCD PUSH1 0xE5 SHL DUP2 MSTORE PUSH1 0x20 PUSH1 0x4 DUP3 ADD MSTORE PUSH1 0x16 PUSH1 0x24 DUP3 ADD MSTORE PUSH32 0x43616C6C6572206973206E6F7420612077696E6E657200000000000000000000 PUSH1 0x44 DUP3 ADD MSTORE PUSH1 0x64 ADD PUSH2 0x489 JUMP JUMPDEST CALLER PUSH1 0x0 DUP2 DUP2 MSTORE PUSH1 0x5 PUSH1 0x20 MSTORE PUSH1 0x40 DUP1 DUP3 KECCAK256 DUP1 SLOAD SWAP1 DUP4 SWAP1 SSTORE SWAP1 MLOAD SWAP1 SWAP2 DUP4 SWAP2 DUP4 ISZERO PUSH2 0x8FC MUL SWAP2 DUP5 SWAP2 SWAP1 DUP2 DUP2 DUP2 DUP6 DUP9 DUP9 CALL SWAP4 POP POP POP POP ISZERO DUP1 ISZERO PUSH2 0x4CA JUMPI RETURNDATASIZE PUSH1 0x0 DUP1 RETURNDATACOPY RETURNDATASIZE PUSH1 0x0 REVERT JUMPDEST PUSH2 0x822 PUSH8 0xDE0B6B3A7640000 CALLVALUE PUSH2 0xDD0 JUMP JUMPDEST ISZERO PUSH2 0x834 PUSH8 0xDE0B6B3A7640000 PUSH2 0xB9C JUMP JUMPDEST PUSH1 0x40 MLOAD PUSH1 0x20 ADD PUSH2 0x844 SWAP2 SWAP1 PUSH2 0xE61 JUMP JUMPDEST PUSH1 0x40 MLOAD PUSH1 0x20 DUP2 DUP4 SUB SUB DUP2 MSTORE SWAP1 PUSH1 0x40 MSTORE SWAP1 PUSH2 0x871 JUMPI PUSH1 0x40 MLOAD PUSH3 0x461BCD PUSH1 0xE5 SHL DUP2 MSTORE PUSH1 0x4 ADD PUSH2 0x489 SWAP2 SWAP1 PUSH2 0xECD JUMP JUMPDEST POP PUSH1 0x0 PUSH2 0x886 PUSH8 0xDE0B6B3A7640000 CALLVALUE PUSH2 0xF00 JUMP JUMPDEST SWAP1 POP PUSH2 0x890 PUSH2 0x94F JUMP JUMPDEST DUP2 GT ISZERO PUSH2 0x8DF JUMPI PUSH1 0x40 MLOAD PUSH3 0x461BCD PUSH1 0xE5 SHL DUP2 MSTORE PUSH1 0x20 PUSH1 0x4 DUP3 ADD MSTORE PUSH1 0x1D PUSH1 0x24 DUP3 ADD MSTORE PUSH32 0x4E6F7420656E6F756768207469636B65747320617661696C61626C652E000000 PUSH1 0x44 DUP3 ADD MSTORE PUSH1 0x64 ADD PUSH2 0x489 JUMP JUMPDEST PUSH1 0x0 JUMPDEST DUP2 DUP2 LT ISZERO PUSH2 0x94B JUMPI PUSH1 0x6 DUP1 SLOAD PUSH1 0x1 DUP2 ADD DUP3 SSTORE PUSH1 0x0 SWAP2 SWAP1 SWAP2 MSTORE PUSH32 0xF652222313E28459528D920B65115C16C04F3EFC82AAEDC97BE59F3F377C0D3F ADD DUP1 SLOAD PUSH20 0xFFFFFFFFFFFFFFFFFFFFFFFFFFFFFFFFFFFFFFFF NOT AND CALLER OR SWAP1 SSTORE DUP1 PUSH2 0x943 DUP2 PUSH2 0xF14 JUMP JUMPDEST SWAP2 POP POP PUSH2 0x8E2 JUMP JUMPDEST POP POP JUMP JUMPDEST PUSH1 0x6 SLOAD PUSH1 0x0 SWAP1 PUSH2 0x960 SWAP1 PUSH1 0x64 PUSH2 0xDA3 JUMP JUMPDEST SWAP1 POP SWAP1 JUMP JUMPDEST PUSH1 0x0 SLOAD TIMESTAMP LT ISZERO PUSH2 0x9B7 JUMPI PUSH1 0x40 MLOAD PUSH3 0x461BCD PUSH1 0xE5 SHL DUP2 MSTORE PUSH1 0x20 PUSH1 0x4 DUP3 ADD MSTORE PUSH1 0x1B PUSH1 0x24 DUP3 ADD MSTORE PUSH32 0x746865206C6F7474657279206E6F742065787069726564207965740000000000 PUSH1 0x44 DUP3 ADD MSTORE PUSH1 0x64 ADD PUSH2 0x489 JUMP JUMPDEST PUSH1 0x0 JUMPDEST PUSH1 0x6 SLOAD DUP2 LT ISZERO PUSH2 0xA7B JUMPI PUSH1 0x0 PUSH1 0x6 DUP3 DUP2 SLOAD DUP2 LT PUSH2 0x9D9 JUMPI PUSH2 0x9D9 PUSH2 0xDE4 JUMP JUMPDEST PUSH1 0x0 SWAP2 DUP3 MSTORE PUSH1 0x20 DUP3 KECCAK256 ADD SLOAD PUSH1 0x6 DUP1 SLOAD PUSH1 0x1 PUSH1 0x1 PUSH1 0xA0 SHL SUB SWAP1 SWAP3 AND SWAP4 POP SWAP1 DUP5 SWAP1 DUP2 LT PUSH2 0xA06 JUMPI PUSH2 0xA06 PUSH2 0xDE4 JUMP JUMPDEST PUSH1 0x0 SWAP2 DUP3 MSTORE PUSH1 0x20 DUP3 KECCAK256 ADD DUP1 SLOAD PUSH20 0xFFFFFFFFFFFFFFFFFFFFFFFFFFFFFFFFFFFFFFFF NOT AND PUSH1 0x1 PUSH1 0x1 PUSH1 0xA0 SHL SUB SWAP4 DUP5 AND OR SWAP1 SSTORE PUSH1 0x40 MLOAD SWAP2 DUP4 AND SWAP2 PUSH8 0xDE0B6B3A7640000 SWAP1 DUP3 DUP2 DUP2 DUP2 DUP6 DUP9 DUP4 CALL SWAP4 POP POP POP POP ISZERO DUP1 ISZERO PUSH2 0xA66 JUMPI RETURNDATASIZE PUSH1 0x0 DUP1 RETURNDATACOPY RETURNDATASIZE PUSH1 0x0 REVERT JUMPDEST POP POP DUP1 DUP1 PUSH2 0xA73 SWAP1 PUSH2 0xF14 JUMP JUMPDEST SWAP2 POP POP PUSH2 0x9BA JUMP JUMPDEST POP PUSH2 0xA88 PUSH1 0x6 PUSH1 0x0 PUSH2 0xCBD JUMP JUMPDEST JUMP JUMPDEST PUSH1 0x6 SLOAD PUSH1 0x0 SWAP1 PUSH2 0x960 SWAP1 PUSH8 0xDE0B6B3A7640000 SWAP1 PUSH2 0xDFA JUMP JUMPDEST PUSH1 0x1 SLOAD PUSH1 0x1 PUSH1 0x1 PUSH1 0xA0 SHL SUB AND CALLER EQ PUSH2 0xB08 JUMPI PUSH1 0x40 MLOAD PUSH3 0x461BCD PUSH1 0xE5 SHL DUP2 MSTORE PUSH1 0x20 PUSH1 0x4 DUP3 ADD MSTORE PUSH1 0x22 PUSH1 0x24 DUP3 ADD MSTORE PUSH32 0x43616C6C6572206973206E6F7420746865206C6F7474657279206F7065726174 PUSH1 0x44 DUP3 ADD MSTORE PUSH2 0x37B9 PUSH1 0xF1 SHL PUSH1 0x64 DUP3 ADD MSTORE PUSH1 0x84 ADD PUSH2 0x489 JUMP JUMPDEST PUSH1 0x6 SLOAD ISZERO PUSH2 0xB7E JUMPI PUSH1 0x40 MLOAD PUSH3 0x461BCD PUSH1 0xE5 SHL DUP2 MSTORE PUSH1 0x20 PUSH1 0x4 DUP3 ADD MSTORE PUSH1 0x26 PUSH1 0x24 DUP3 ADD MSTORE PUSH32 0x43616E6E6F742052657374617274204472617720617320447261772069732069 PUSH1 0x44 DUP3 ADD MSTORE PUSH32 0x6E20706C61790000000000000000000000000000000000000000000000000000 PUSH1 0x64 DUP3 ADD MSTORE PUSH1 0x84 ADD PUSH2 0x489 JUMP JUMPDEST PUSH2 0xB8A PUSH1 0x6 PUSH1 0x0 PUSH2 0xCBD JUMP JUMPDEST PUSH2 0xB97 PUSH3 0x93A80 TIMESTAMP PUSH2 0xE19 JUMP JUMPDEST PUSH1 0x0 SSTORE JUMP JUMPDEST PUSH1 0x60 DUP2 PUSH1 0x0 SUB PUSH2 0xBC3 JUMPI POP POP PUSH1 0x40 DUP1 MLOAD DUP1 DUP3 ADD SWAP1 SWAP2 MSTORE PUSH1 0x1 DUP2 MSTORE PUSH1 0x3 PUSH1 0xFC SHL PUSH1 0x20 DUP3 ADD MSTORE SWAP1 JUMP JUMPDEST DUP2 PUSH1 0x0 JUMPDEST DUP2 ISZERO PUSH2 0xBED JUMPI DUP1 PUSH2 0xBD7 DUP2 PUSH2 0xF14 JUMP JUMPDEST SWAP2 POP PUSH2 0xBE6 SWAP1 POP PUSH1 0xA DUP4 PUSH2 0xF00 JUMP JUMPDEST SWAP2 POP PUSH2 0xBC7 JUMP JUMPDEST PUSH1 0x0 DUP2 PUSH8 0xFFFFFFFFFFFFFFFF DUP2 GT ISZERO PUSH2 0xC08 JUMPI PUSH2 0xC08 PUSH2 0xF2D JUMP JUMPDEST PUSH1 0x40 MLOAD SWAP1 DUP1 DUP3 MSTORE DUP1 PUSH1 0x1F ADD PUSH1 0x1F NOT AND PUSH1 0x20 ADD DUP3 ADD PUSH1 0x40 MSTORE DUP1 ISZERO PUSH2 0xC32 JUMPI PUSH1 0x20 DUP3 ADD DUP2 DUP1 CALLDATASIZE DUP4 CALLDATACOPY ADD SWAP1 POP JUMPDEST POP SWAP1 POP JUMPDEST DUP5 ISZERO PUSH2 0xCB5 JUMPI PUSH2 0xC47 PUSH1 0x1 DUP4 PUSH2 0xDA3 JUMP JUMPDEST SWAP2 POP PUSH2 0xC54 PUSH1 0xA DUP7 PUSH2 0xDD0 JUMP JUMPDEST PUSH2 0xC5F SWAP1 PUSH1 0x30 PUSH2 0xE19 JUMP JUMPDEST PUSH1 0xF8 SHL DUP2 DUP4 DUP2 MLOAD DUP2 LT PUSH2 0xC74 JUMPI PUSH2 0xC74 PUSH2 0xDE4 JUMP JUMPDEST PUSH1 0x20 ADD ADD SWAP1 PUSH31 0xFFFFFFFFFFFFFFFFFFFFFFFFFFFFFFFFFFFFFFFFFFFFFFFFFFFFFFFFFFFFFF NOT AND SWAP1 DUP2 PUSH1 0x0 BYTE SWAP1 MSTORE8 POP PUSH2 0xCAE PUSH1 0xA DUP7 PUSH2 0xF00 JUMP JUMPDEST SWAP5 POP PUSH2 0xC36 JUMP JUMPDEST SWAP5 SWAP4 POP POP POP POP JUMP JUMPDEST POP DUP1 SLOAD PUSH1 0x0 DUP3 SSTORE SWAP1 PUSH1 0x0 MSTORE PUSH1 0x20 PUSH1 0x0 KECCAK256 SWAP1 DUP2 ADD SWAP1 PUSH2 0xCDB SWAP2 SWAP1 PUSH2 0xCDE JUMP JUMPDEST POP JUMP JUMPDEST JUMPDEST DUP1 DUP3 GT ISZERO PUSH2 0xCF3 JUMPI PUSH1 0x0 DUP2 SSTORE PUSH1 0x1 ADD PUSH2 0xCDF JUMP JUMPDEST POP SWAP1 JUMP JUMPDEST PUSH1 0x20 DUP1 DUP3 MSTORE DUP3 MLOAD DUP3 DUP3 ADD DUP2 SWAP1 MSTORE PUSH1 0x0 SWAP2 SWAP1 DUP5 DUP3 ADD SWAP1 PUSH1 0x40 DUP6 ADD SWAP1 DUP5 JUMPDEST DUP2 DUP2 LT ISZERO PUSH2 0xD38 JUMPI DUP4 MLOAD PUSH1 0x1 PUSH1 0x1 PUSH1 0xA0 SHL SUB AND DUP4 MSTORE SWAP3 DUP5 ADD SWAP3 SWAP2 DUP5 ADD SWAP2 PUSH1 0x1 ADD PUSH2 0xD13 JUMP JUMPDEST POP SWAP1 SWAP7 SWAP6 POP POP POP POP POP POP JUMP JUMPDEST PUSH1 0x0 PUSH1 0x20 DUP3 DUP5 SUB SLT ISZERO PUSH2 0xD56 JUMPI PUSH1 0x0 DUP1 REVERT JUMPDEST POP CALLDATALOAD SWAP2 SWAP1 POP JUMP JUMPDEST PUSH1 0x0 PUSH1 0x20 DUP3 DUP5 SUB SLT ISZERO PUSH2 0xD6F JUMPI PUSH1 0x0 DUP1 REVERT JUMPDEST DUP2 CALLDATALOAD PUSH1 0x1 PUSH1 0x1 PUSH1 0xA0 SHL SUB DUP2 AND DUP2 EQ PUSH2 0xD86 JUMPI PUSH1 0x0 DUP1 REVERT JUMPDEST SWAP4 SWAP3 POP POP POP JUMP JUMPDEST PUSH4 0x4E487B71 PUSH1 0xE0 SHL PUSH1 0x0 MSTORE PUSH1 0x11 PUSH1 0x4 MSTORE PUSH1 0x24 PUSH1 0x0 REVERT JUMPDEST PUSH1 0x0 DUP3 DUP3 LT ISZERO PUSH2 0xDB5 JUMPI PUSH2 0xDB5 PUSH2 0xD8D JUMP JUMPDEST POP SUB SWAP1 JUMP JUMPDEST PUSH4 0x4E487B71 PUSH1 0xE0 SHL PUSH1 0x0 MSTORE PUSH1 0x12 PUSH1 0x4 MSTORE PUSH1 0x24 PUSH1 0x0 REVERT JUMPDEST PUSH1 0x0 DUP3 PUSH2 0xDDF JUMPI PUSH2 0xDDF PUSH2 0xDBA JUMP JUMPDEST POP MOD SWAP1 JUMP JUMPDEST PUSH4 0x4E487B71 PUSH1 0xE0 SHL PUSH1 0x0 MSTORE PUSH1 0x32 PUSH1 0x4 MSTORE PUSH1 0x24 PUSH1 0x0 REVERT JUMPDEST PUSH1 0x0 DUP2 PUSH1 0x0 NOT DIV DUP4 GT DUP3 ISZERO ISZERO AND ISZERO PUSH2 0xE14 JUMPI PUSH2 0xE14 PUSH2 0xD8D JUMP JUMPDEST POP MUL SWAP1 JUMP JUMPDEST PUSH1 0x0 DUP3 NOT DUP3 GT ISZERO PUSH2 0xE2C JUMPI PUSH2 0xE2C PUSH2 0xD8D JUMP JUMPDEST POP ADD SWAP1 JUMP JUMPDEST PUSH1 0x0 JUMPDEST DUP4 DUP2 LT ISZERO PUSH2 0xE4C JUMPI DUP2 DUP2 ADD MLOAD DUP4 DUP3 ADD MSTORE PUSH1 0x20 ADD PUSH2 0xE34 JUMP JUMPDEST DUP4 DUP2 GT ISZERO PUSH2 0xE5B JUMPI PUSH1 0x0 DUP5 DUP5 ADD MSTORE JUMPDEST POP POP POP POP JUMP JUMPDEST PUSH32 0x7468652076616C7565206D757374206265206D756C7469706C65206F66200000 DUP2 MSTORE PUSH1 0x0 DUP3 MLOAD PUSH2 0xE99 DUP2 PUSH1 0x1E DUP6 ADD PUSH1 0x20 DUP8 ADD PUSH2 0xE31 JUMP JUMPDEST PUSH32 0x2045746865720000000000000000000000000000000000000000000000000000 PUSH1 0x1E SWAP4 SWAP1 SWAP2 ADD SWAP3 DUP4 ADD MSTORE POP PUSH1 0x24 ADD SWAP2 SWAP1 POP JUMP JUMPDEST PUSH1 0x20 DUP2 MSTORE PUSH1 0x0 DUP3 MLOAD DUP1 PUSH1 0x20 DUP5 ADD MSTORE PUSH2 0xEEC DUP2 PUSH1 0x40 DUP6 ADD PUSH1 0x20 DUP8 ADD PUSH2 0xE31 JUMP JUMPDEST PUSH1 0x1F ADD PUSH1 0x1F NOT AND SWAP2 SWAP1 SWAP2 ADD PUSH1 0x40 ADD SWAP3 SWAP2 POP POP JUMP JUMPDEST PUSH1 0x0 DUP3 PUSH2 0xF0F JUMPI PUSH2 0xF0F PUSH2 0xDBA JUMP JUMPDEST POP DIV SWAP1 JUMP JUMPDEST PUSH1 0x0 PUSH1 0x1 DUP3 ADD PUSH2 0xF26 JUMPI PUSH2 0xF26 PUSH2 0xD8D JUMP JUMPDEST POP PUSH1 0x1 ADD SWAP1 JUMP JUMPDEST PUSH4 0x4E487B71 PUSH1 0xE0 SHL PUSH1 0x0 MSTORE PUSH1 0x41 PUSH1 0x4 MSTORE PUSH1 0x24 PUSH1 0x0 REVERT INVALID LOG2 PUSH5 0x6970667358 0x22 SLT KECCAK256 0x5D NOT 0x2E 0xA5 0xC4 0xE DUP13 0xB6 PC PUSH27 0x43D7CE6F81D3AA065797EE279DA101CFB522AE110F64736F6C63 NUMBER STOP ADDMOD 0xD STOP CALLER "
    },
    "gasEstimates": {
      "creation": {
        "codeDepositCost": "792200",
        "executionCost": "52250",
        "totalCost": "844450"
      },
      "external": {
        "BuyTickets()": "infinite",
        "CurrentWinningReward()": "2469",
        "DrawWinnerTicket()": "infinite",
        "IsWinner()": "2405",
        "RefundAll()": "infinite",
        "RemainingTickets()": "2464",
        "WithdrawCommission()": "infinite",
        "WithdrawWinnings()": "infinite",
        "checkWinningsAmount()": "2418",
        "duration()": "230",
        "expiration()": "2330",
        "getTickets()": "infinite",
        "getWinningsForAddress(address)": "2580",
        "lastWinner()": "2425",
        "lastWinnerAmount()": "2331",
        "lotteryOperator()": "2404",
        "maxTickets()": "251",
        "operatorTotalCommission()": "2329",
        "restartDraw()": "infinite",
        "ticketCommission()": "273",
        "ticketPrice()": "252",
        "tickets(uint256)": "4659",
        "winnings(address)": "2517"
      }
    },
    "methodIdentifiers": {
      "BuyTickets()": "91d8b14e",
      "CurrentWinningReward()": "c6944fa0",
      "DrawWinnerTicket()": "4788af7c",
      "IsWinner()": "96c85ef3",
      "RefundAll()": "a88f4672",
      "RemainingTickets()": "93a563b5",
      "WithdrawCommission()": "35580df2",
      "WithdrawWinnings()": "71827b7b",
      "checkWinningsAmount()": "0789c607",
      "duration()": "0fb5a6b4",
      "expiration()": "4665096d",
      "getTickets()": "4ed02622",
      "getWinningsForAddress(address)": "dd64e534",
      "lastWinner()": "fe188184",
      "lastWinnerAmount()": "06f7f3bf",
      "lotteryOperator()": "5a58acdd",
      "maxTickets()": "9b894703",
      "operatorTotalCommission()": "ba946d79",
      "restartDraw()": "f2613269",
      "ticketCommission()": "6032a4f9",
      "ticketPrice()": "1209b1f6",
      "tickets(uint256)": "50b44712",
      "winnings(address)": "ea3a1499"
    }
  },
  "storageLayout": {
    "storage": [
      {
        "astId": 16,
        "contract": "Lottery.sol:Lottery",
        "label": "expiration",
        "offset": 0,
        "slot": "0",
        "type": "t_uint256"
      },
      {
        "astId": 18,
        "contract": "Lottery.sol:Lottery",
        "label": "lotteryOperator",
        "offset": 0,
        "slot": "1",
        "type": "t_address"
      },
      {
        "astId": 21,
        "contract": "Lottery.sol:Lottery",
        "label": "operatorTotalCommission",
        "offset": 0,
        "slot": "2",
        "type": "t_uint256"
      },
      {
        "astId": 23,
        "contract": "Lottery.sol:Lottery",
        "label": "lastWinner",
        "offset": 0,
        "slot": "3",
        "type": "t_address"
      },
      {
        "astId": 25,
        "contract": "Lottery.sol:Lottery",
        "label": "lastWinnerAmount",
        "offset": 0,
        "slot": "4",
        "type": "t_uint256"
      },
      {
        "astId": 29,
        "contract": "Lottery.sol:Lottery",
        "label": "winnings",
        "offset": 0,
        "slot": "5",
        "type": "t_mapping(t_address,t_uint256)"
      },
      {
        "astId": 32,
        "contract": "Lottery.sol:Lottery",
        "label": "tickets",
        "offset": 0,
        "slot": "6",
        "type": "t_array(t_address)dyn_storage"
      }
    ],
    "types": {
      "t_address": {
        "encoding": "inplace",
        "label": "address",
        "numberOfBytes": "20"
      },
      "t_array(t_address)dyn_storage": {
        "base": "t_address",
        "encoding": "dynamic_array",
        "label": "address[]",
        "numberOfBytes": "32"
      },
      "t_mapping(t_address,t_uint256)": {
        "encoding": "mapping",
        "key": "t_address",
        "label": "mapping(address => uint256)",
        "numberOfBytes": "32",
        "value": "t_uint256"
      },
      "t_uint256": {
        "encoding": "inplace",
        "label": "uint256",
        "numberOfBytes": "32"
      }
    }
  },
  "userdoc": {
    "kind": "user",
    "methods": {},
    "version": 1
  }
}